{
  "contractName": "ShoeNFT",
  "abi": [
    {
      "inputs": [],
      "stateMutability": "nonpayable",
      "type": "constructor"
    },
    {
      "anonymous": false,
      "inputs": [
        {
          "indexed": true,
          "internalType": "address",
          "name": "owner",
          "type": "address"
        },
        {
          "indexed": true,
          "internalType": "address",
          "name": "approved",
          "type": "address"
        },
        {
          "indexed": true,
          "internalType": "uint256",
          "name": "tokenId",
          "type": "uint256"
        }
      ],
      "name": "Approval",
      "type": "event"
    },
    {
      "anonymous": false,
      "inputs": [
        {
          "indexed": true,
          "internalType": "address",
          "name": "owner",
          "type": "address"
        },
        {
          "indexed": true,
          "internalType": "address",
          "name": "operator",
          "type": "address"
        },
        {
          "indexed": false,
          "internalType": "bool",
          "name": "approved",
          "type": "bool"
        }
      ],
      "name": "ApprovalForAll",
      "type": "event"
    },
    {
      "anonymous": false,
      "inputs": [
        {
          "indexed": true,
          "internalType": "address",
          "name": "previousOwner",
          "type": "address"
        },
        {
          "indexed": true,
          "internalType": "address",
          "name": "newOwner",
          "type": "address"
        }
      ],
      "name": "OwnershipTransferred",
      "type": "event"
    },
    {
      "anonymous": false,
      "inputs": [
        {
          "indexed": true,
          "internalType": "address",
          "name": "from",
          "type": "address"
        },
        {
          "indexed": true,
          "internalType": "address",
          "name": "to",
          "type": "address"
        },
        {
          "indexed": true,
          "internalType": "uint256",
          "name": "tokenId",
          "type": "uint256"
        }
      ],
      "name": "Transfer",
      "type": "event"
    },
    {
      "inputs": [
        {
          "internalType": "uint256",
          "name": "",
          "type": "uint256"
        }
      ],
      "name": "allTokenIds",
      "outputs": [
        {
          "internalType": "uint256",
          "name": "",
          "type": "uint256"
        }
      ],
      "stateMutability": "view",
      "type": "function",
      "constant": true
    },
    {
      "inputs": [
        {
          "internalType": "address",
          "name": "to",
          "type": "address"
        },
        {
          "internalType": "uint256",
          "name": "tokenId",
          "type": "uint256"
        }
      ],
      "name": "approve",
      "outputs": [],
      "stateMutability": "nonpayable",
      "type": "function"
    },
    {
      "inputs": [
        {
          "internalType": "address",
          "name": "owner",
          "type": "address"
        }
      ],
      "name": "balanceOf",
      "outputs": [
        {
          "internalType": "uint256",
          "name": "",
          "type": "uint256"
        }
      ],
      "stateMutability": "view",
      "type": "function",
      "constant": true
    },
    {
      "inputs": [
        {
          "internalType": "uint256",
          "name": "tokenId",
          "type": "uint256"
        }
      ],
      "name": "getApproved",
      "outputs": [
        {
          "internalType": "address",
          "name": "",
          "type": "address"
        }
      ],
      "stateMutability": "view",
      "type": "function",
      "constant": true
    },
    {
      "inputs": [
        {
          "internalType": "address",
          "name": "owner",
          "type": "address"
        },
        {
          "internalType": "address",
          "name": "operator",
          "type": "address"
        }
      ],
      "name": "isApprovedForAll",
      "outputs": [
        {
          "internalType": "bool",
          "name": "",
          "type": "bool"
        }
      ],
      "stateMutability": "view",
      "type": "function",
      "constant": true
    },
    {
      "inputs": [],
      "name": "name",
      "outputs": [
        {
          "internalType": "string",
          "name": "",
          "type": "string"
        }
      ],
      "stateMutability": "view",
      "type": "function",
      "constant": true
    },
    {
      "inputs": [],
      "name": "owner",
      "outputs": [
        {
          "internalType": "address",
          "name": "",
          "type": "address"
        }
      ],
      "stateMutability": "view",
      "type": "function",
      "constant": true
    },
    {
      "inputs": [
        {
          "internalType": "uint256",
          "name": "tokenId",
          "type": "uint256"
        }
      ],
      "name": "ownerOf",
      "outputs": [
        {
          "internalType": "address",
          "name": "",
          "type": "address"
        }
      ],
      "stateMutability": "view",
      "type": "function",
      "constant": true
    },
    {
      "inputs": [],
      "name": "renounceOwnership",
      "outputs": [],
      "stateMutability": "nonpayable",
      "type": "function"
    },
    {
      "inputs": [
        {
          "internalType": "address",
          "name": "operator",
          "type": "address"
        },
        {
          "internalType": "bool",
          "name": "approved",
          "type": "bool"
        }
      ],
      "name": "setApprovalForAll",
      "outputs": [],
      "stateMutability": "nonpayable",
      "type": "function"
    },
    {
      "inputs": [
        {
          "internalType": "bytes4",
          "name": "interfaceId",
          "type": "bytes4"
        }
      ],
      "name": "supportsInterface",
      "outputs": [
        {
          "internalType": "bool",
          "name": "",
          "type": "bool"
        }
      ],
      "stateMutability": "view",
      "type": "function",
      "constant": true
    },
    {
      "inputs": [],
      "name": "symbol",
      "outputs": [
        {
          "internalType": "string",
          "name": "",
          "type": "string"
        }
      ],
      "stateMutability": "view",
      "type": "function",
      "constant": true
    },
    {
      "inputs": [
        {
          "internalType": "uint256",
          "name": "index",
          "type": "uint256"
        }
      ],
      "name": "tokenByIndex",
      "outputs": [
        {
          "internalType": "uint256",
          "name": "",
          "type": "uint256"
        }
      ],
      "stateMutability": "view",
      "type": "function",
      "constant": true
    },
    {
      "inputs": [
        {
          "internalType": "address",
          "name": "owner",
          "type": "address"
        },
        {
          "internalType": "uint256",
          "name": "index",
          "type": "uint256"
        }
      ],
      "name": "tokenOfOwnerByIndex",
      "outputs": [
        {
          "internalType": "uint256",
          "name": "",
          "type": "uint256"
        }
      ],
      "stateMutability": "view",
      "type": "function",
      "constant": true
    },
    {
      "inputs": [],
      "name": "totalSupply",
      "outputs": [
        {
          "internalType": "uint256",
          "name": "",
          "type": "uint256"
        }
      ],
      "stateMutability": "view",
      "type": "function",
      "constant": true
    },
    {
      "inputs": [
        {
          "internalType": "address",
          "name": "from",
          "type": "address"
        },
        {
          "internalType": "address",
          "name": "to",
          "type": "address"
        },
        {
          "internalType": "uint256",
          "name": "tokenId",
          "type": "uint256"
        }
      ],
      "name": "transferFrom",
      "outputs": [],
      "stateMutability": "nonpayable",
      "type": "function"
    },
    {
      "inputs": [
        {
          "internalType": "address",
          "name": "newOwner",
          "type": "address"
        }
      ],
      "name": "transferOwnership",
      "outputs": [],
      "stateMutability": "nonpayable",
      "type": "function"
    },
    {
      "inputs": [
        {
          "internalType": "address",
          "name": "to",
          "type": "address"
        },
        {
          "internalType": "uint256",
          "name": "serialNumber",
          "type": "uint256"
        },
        {
          "internalType": "string",
          "name": "tokenURI",
          "type": "string"
        }
      ],
      "name": "mint",
      "outputs": [],
      "stateMutability": "nonpayable",
      "type": "function"
    },
    {
      "inputs": [
        {
          "internalType": "uint256",
          "name": "tokenId",
          "type": "uint256"
        }
      ],
      "name": "tokenURI",
      "outputs": [
        {
          "internalType": "string",
          "name": "",
          "type": "string"
        }
      ],
      "stateMutability": "view",
      "type": "function",
      "constant": true
    },
    {
      "inputs": [],
      "name": "getAllTokens",
      "outputs": [
        {
          "internalType": "uint256[]",
          "name": "",
          "type": "uint256[]"
        }
      ],
      "stateMutability": "view",
      "type": "function",
      "constant": true
    },
    {
      "inputs": [
        {
          "internalType": "address",
          "name": "from",
          "type": "address"
        },
        {
          "internalType": "address",
          "name": "to",
          "type": "address"
        },
        {
          "internalType": "uint256",
          "name": "tokenId",
          "type": "uint256"
        }
      ],
      "name": "safeTransferFrom",
      "outputs": [],
      "stateMutability": "nonpayable",
      "type": "function"
    },
    {
      "inputs": [
        {
          "internalType": "address",
          "name": "from",
          "type": "address"
        },
        {
          "internalType": "address",
          "name": "to",
          "type": "address"
        },
        {
          "internalType": "uint256",
          "name": "tokenId",
          "type": "uint256"
        },
        {
          "internalType": "bytes",
          "name": "data",
          "type": "bytes"
        }
      ],
      "name": "safeTransferFrom",
      "outputs": [],
      "stateMutability": "nonpayable",
      "type": "function"
    }
  ],
  "bytecode": "0x60806040523480156200001157600080fd5b506040518060400160405280600781526020017f53686f654e4654000000000000000000000000000000000000000000000000008152506040518060400160405280600481526020017f53484f4500000000000000000000000000000000000000000000000000000000815250816000908051906020019062000096929190620001a6565b508060019080519060200190620000af929190620001a6565b505050620000d2620000c6620000d860201b60201c565b620000e060201b60201c565b620002bb565b600033905090565b6000600a60009054906101000a900473ffffffffffffffffffffffffffffffffffffffff16905081600a60006101000a81548173ffffffffffffffffffffffffffffffffffffffff021916908373ffffffffffffffffffffffffffffffffffffffff1602179055508173ffffffffffffffffffffffffffffffffffffffff168173ffffffffffffffffffffffffffffffffffffffff167f8be0079c531659141344cd1fd0a4f28419497f9722a3daafe3b4186f6b6457e060405160405180910390a35050565b828054620001b49062000256565b90600052602060002090601f016020900481019282620001d8576000855562000224565b82601f10620001f357805160ff191683800117855562000224565b8280016001018555821562000224579182015b828111156200022357825182559160200191906001019062000206565b5b50905062000233919062000237565b5090565b5b808211156200025257600081600090555060010162000238565b5090565b600060028204905060018216806200026f57607f821691505b602082108114156200028657620002856200028c565b5b50919050565b7f4e487b7100000000000000000000000000000000000000000000000000000000600052602260045260246000fd5b6134d480620002cb6000396000f3fe608060405234801561001057600080fd5b50600436106101425760003560e01c806370a08231116100b8578063a22cb4651161007c578063a22cb4651461038b578063b88d4fde146103a7578063c87b56dd146103c3578063d3fc9864146103f3578063e985e9c51461040f578063f2fde38b1461043f57610142565b806370a08231146102e5578063715018a6146103155780637d07b2d21461031f5780638da5cb5b1461034f57806395d89b411461036d57610142565b806323b872dd1161010a57806323b872dd146101ff5780632a5c792a1461021b5780632f745c591461023957806342842e0e146102695780634f6ccce7146102855780636352211e146102b557610142565b806301ffc9a71461014757806306fdde0314610177578063081812fc14610195578063095ea7b3146101c557806318160ddd146101e1575b600080fd5b610161600480360381019061015c91906124c7565b61045b565b60405161016e9190612988565b60405180910390f35b61017f6104d5565b60405161018c91906129a3565b60405180910390f35b6101af60048036038101906101aa9190612519565b610567565b6040516101bc91906128ff565b60405180910390f35b6101df60048036038101906101da9190612424565b6105ad565b005b6101e96106c5565b6040516101f69190612c25565b60405180910390f35b6102196004803603810190610214919061231e565b6106d2565b005b610223610732565b6040516102309190612966565b60405180910390f35b610253600480360381019061024e9190612424565b61078a565b6040516102609190612c25565b60405180910390f35b610283600480360381019061027e919061231e565b61082f565b005b61029f600480360381019061029a9190612519565b6108a9565b6040516102ac9190612c25565b60405180910390f35b6102cf60048036038101906102ca9190612519565b610940565b6040516102dc91906128ff565b60405180910390f35b6102ff60048036038101906102fa91906122b9565b6109c7565b60405161030c9190612c25565b60405180910390f35b61031d610a7f565b005b61033960048036038101906103349190612519565b610a93565b6040516103469190612c25565b60405180910390f35b610357610ab7565b60405161036491906128ff565b60405180910390f35b610375610ae1565b60405161038291906129a3565b60405180910390f35b6103a560048036038101906103a091906123e8565b610b73565b005b6103c160048036038101906103bc919061236d565b610b89565b005b6103dd60048036038101906103d89190612519565b610beb565b6040516103ea91906129a3565b60405180910390f35b61040d60048036038101906104089190612460565b610cd8565b005b610429600480360381019061042491906122e2565b610d6b565b6040516104369190612988565b60405180910390f35b610459600480360381019061045491906122b9565b610dff565b005b60007f780e9d63000000000000000000000000000000000000000000000000000000007bffffffffffffffffffffffffffffffffffffffffffffffffffffffff1916827bffffffffffffffffffffffffffffffffffffffffffffffffffffffff191614806104ce57506104cd82610e83565b5b9050919050565b6060600080546104e490612e22565b80601f016020809104026020016040519081016040528092919081815260200182805461051090612e22565b801561055d5780601f106105325761010080835404028352916020019161055d565b820191906000526020600020905b81548152906001019060200180831161054057829003601f168201915b5050505050905090565b600061057282610f65565b6004600083815260200190815260200160002060009054906101000a900473ffffffffffffffffffffffffffffffffffffffff169050919050565b60006105b882610940565b90508073ffffffffffffffffffffffffffffffffffffffff168373ffffffffffffffffffffffffffffffffffffffff161415610629576040517f08c379a000000000000000000000000000000000000000000000000000000000815260040161062090612b85565b60405180910390fd5b8073ffffffffffffffffffffffffffffffffffffffff16610648610fb0565b73ffffffffffffffffffffffffffffffffffffffff161480610677575061067681610671610fb0565b610d6b565b5b6106b6576040517f08c379a00000000000000000000000000000000000000000000000000000000081526004016106ad90612ba5565b60405180910390fd5b6106c08383610fb8565b505050565b6000600880549050905090565b6106e36106dd610fb0565b82611071565b610722576040517f08c379a0000000000000000000000000000000000000000000000000000000008152600401610719906129c5565b60405180910390fd5b61072d838383611106565b505050565b6060600c80548060200260200160405190810160405280929190818152602001828054801561078057602002820191906000526020600020905b81548152602001906001019080831161076c575b5050505050905090565b6000610795836109c7565b82106107d6576040517f08c379a00000000000000000000000000000000000000000000000000000000081526004016107cd906129e5565b60405180910390fd5b600660008473ffffffffffffffffffffffffffffffffffffffff1673ffffffffffffffffffffffffffffffffffffffff168152602001908152602001600020600083815260200190815260200160002054905092915050565b61084061083a610fb0565b82611071565b61087f576040517f08c379a000000000000000000000000000000000000000000000000000000000815260040161087690612bc5565b60405180910390fd5b61088982826105ad565b6108a483838360405180602001604052806000815250611400565b505050565b60006108b36106c5565b82106108f4576040517f08c379a00000000000000000000000000000000000000000000000000000000081526004016108eb90612be5565b60405180910390fd5b6008828154811061092e577f4e487b7100000000000000000000000000000000000000000000000000000000600052603260045260246000fd5b90600052602060002001549050919050565b60008061094c8361145c565b9050600073ffffffffffffffffffffffffffffffffffffffff168173ffffffffffffffffffffffffffffffffffffffff1614156109be576040517f08c379a00000000000000000000000000000000000000000000000000000000081526004016109b590612b65565b60405180910390fd5b80915050919050565b60008073ffffffffffffffffffffffffffffffffffffffff168273ffffffffffffffffffffffffffffffffffffffff161415610a38576040517f08c379a0000000000000000000000000000000000000000000000000000000008152600401610a2f90612ae5565b60405180910390fd5b600360008373ffffffffffffffffffffffffffffffffffffffff1673ffffffffffffffffffffffffffffffffffffffff168152602001908152602001600020549050919050565b610a87611499565b610a916000611517565b565b600c8181548110610aa357600080fd5b906000526020600020016000915090505481565b6000600a60009054906101000a900473ffffffffffffffffffffffffffffffffffffffff16905090565b606060018054610af090612e22565b80601f0160208091040260200160405190810160405280929190818152602001828054610b1c90612e22565b8015610b695780601f10610b3e57610100808354040283529160200191610b69565b820191906000526020600020905b815481529060010190602001808311610b4c57829003601f168201915b5050505050905090565b610b85610b7e610fb0565b83836115dd565b5050565b610b9a610b94610fb0565b83611071565b610bd9576040517f08c379a0000000000000000000000000000000000000000000000000000000008152600401610bd0906129c5565b60405180910390fd5b610be584848484611400565b50505050565b6060610bf68261174a565b610c35576040517f08c379a0000000000000000000000000000000000000000000000000000000008152600401610c2c90612b45565b60405180910390fd5b600b60008381526020019081526020016000208054610c5390612e22565b80601f0160208091040260200160405190810160405280929190818152602001828054610c7f90612e22565b8015610ccc5780601f10610ca157610100808354040283529160200191610ccc565b820191906000526020600020905b815481529060010190602001808311610caf57829003601f168201915b50505050509050919050565b610ce0611499565b610ce98261174a565b15610d29576040517f08c379a0000000000000000000000000000000000000000000000000000000008152600401610d2090612ac5565b60405180910390fd5b610d33838361178b565b610d3d82826119a9565b600c829080600181540180825580915050600190039060005260206000200160009091909190915055505050565b6000600560008473ffffffffffffffffffffffffffffffffffffffff1673ffffffffffffffffffffffffffffffffffffffff16815260200190815260200160002060008373ffffffffffffffffffffffffffffffffffffffff1673ffffffffffffffffffffffffffffffffffffffff16815260200190815260200160002060009054906101000a900460ff16905092915050565b610e07611499565b600073ffffffffffffffffffffffffffffffffffffffff168173ffffffffffffffffffffffffffffffffffffffff161415610e77576040517f08c379a0000000000000000000000000000000000000000000000000000000008152600401610e6e90612a25565b60405180910390fd5b610e8081611517565b50565b60007f80ac58cd000000000000000000000000000000000000000000000000000000007bffffffffffffffffffffffffffffffffffffffffffffffffffffffff1916827bffffffffffffffffffffffffffffffffffffffffffffffffffffffff19161480610f4e57507f5b5e139f000000000000000000000000000000000000000000000000000000007bffffffffffffffffffffffffffffffffffffffffffffffffffffffff1916827bffffffffffffffffffffffffffffffffffffffffffffffffffffffff1916145b80610f5e5750610f5d826119d5565b5b9050919050565b610f6e8161174a565b610fad576040517f08c379a0000000000000000000000000000000000000000000000000000000008152600401610fa490612b65565b60405180910390fd5b50565b600033905090565b816004600083815260200190815260200160002060006101000a81548173ffffffffffffffffffffffffffffffffffffffff021916908373ffffffffffffffffffffffffffffffffffffffff160217905550808273ffffffffffffffffffffffffffffffffffffffff1661102b83610940565b73ffffffffffffffffffffffffffffffffffffffff167f8c5be1e5ebec7d5bd14f71427d1e84f3dd0314c0f7b2291e5b200ac8c7c3b92560405160405180910390a45050565b60008061107d83610940565b90508073ffffffffffffffffffffffffffffffffffffffff168473ffffffffffffffffffffffffffffffffffffffff1614806110bf57506110be8185610d6b565b5b806110fd57508373ffffffffffffffffffffffffffffffffffffffff166110e584610567565b73ffffffffffffffffffffffffffffffffffffffff16145b91505092915050565b8273ffffffffffffffffffffffffffffffffffffffff1661112682610940565b73ffffffffffffffffffffffffffffffffffffffff161461117c576040517f08c379a000000000000000000000000000000000000000000000000000000000815260040161117390612a45565b60405180910390fd5b600073ffffffffffffffffffffffffffffffffffffffff168273ffffffffffffffffffffffffffffffffffffffff1614156111ec576040517f08c379a00000000000000000000000000000000000000000000000000000000081526004016111e390612a85565b60405180910390fd5b6111f98383836001611a3f565b8273ffffffffffffffffffffffffffffffffffffffff1661121982610940565b73ffffffffffffffffffffffffffffffffffffffff161461126f576040517f08c379a000000000000000000000000000000000000000000000000000000000815260040161126690612a45565b60405180910390fd5b6004600082815260200190815260200160002060006101000a81549073ffffffffffffffffffffffffffffffffffffffff02191690556001600360008573ffffffffffffffffffffffffffffffffffffffff1673ffffffffffffffffffffffffffffffffffffffff168152602001908152602001600020600082825403925050819055506001600360008473ffffffffffffffffffffffffffffffffffffffff1673ffffffffffffffffffffffffffffffffffffffff16815260200190815260200160002060008282540192505081905550816002600083815260200190815260200160002060006101000a81548173ffffffffffffffffffffffffffffffffffffffff021916908373ffffffffffffffffffffffffffffffffffffffff160217905550808273ffffffffffffffffffffffffffffffffffffffff168473ffffffffffffffffffffffffffffffffffffffff167fddf252ad1be2c89b69c2b068fc378daa952ba7f163c4a11628f55a4df523b3ef60405160405180910390a46113fb8383836001611b9f565b505050565b61140b848484611106565b61141784848484611ba5565b611456576040517f08c379a000000000000000000000000000000000000000000000000000000000815260040161144d90612a05565b60405180910390fd5b50505050565b60006002600083815260200190815260200160002060009054906101000a900473ffffffffffffffffffffffffffffffffffffffff169050919050565b6114a1610fb0565b73ffffffffffffffffffffffffffffffffffffffff166114bf610ab7565b73ffffffffffffffffffffffffffffffffffffffff1614611515576040517f08c379a000000000000000000000000000000000000000000000000000000000815260040161150c90612b25565b60405180910390fd5b565b6000600a60009054906101000a900473ffffffffffffffffffffffffffffffffffffffff16905081600a60006101000a81548173ffffffffffffffffffffffffffffffffffffffff021916908373ffffffffffffffffffffffffffffffffffffffff1602179055508173ffffffffffffffffffffffffffffffffffffffff168173ffffffffffffffffffffffffffffffffffffffff167f8be0079c531659141344cd1fd0a4f28419497f9722a3daafe3b4186f6b6457e060405160405180910390a35050565b8173ffffffffffffffffffffffffffffffffffffffff168373ffffffffffffffffffffffffffffffffffffffff16141561164c576040517f08c379a000000000000000000000000000000000000000000000000000000000815260040161164390612aa5565b60405180910390fd5b80600560008573ffffffffffffffffffffffffffffffffffffffff1673ffffffffffffffffffffffffffffffffffffffff16815260200190815260200160002060008473ffffffffffffffffffffffffffffffffffffffff1673ffffffffffffffffffffffffffffffffffffffff16815260200190815260200160002060006101000a81548160ff0219169083151502179055508173ffffffffffffffffffffffffffffffffffffffff168373ffffffffffffffffffffffffffffffffffffffff167f17307eab39ab6107e8899845ad3d59bd9653f200f220920489ca2b5937696c318360405161173d9190612988565b60405180910390a3505050565b60008073ffffffffffffffffffffffffffffffffffffffff1661176c8361145c565b73ffffffffffffffffffffffffffffffffffffffff1614159050919050565b600073ffffffffffffffffffffffffffffffffffffffff168273ffffffffffffffffffffffffffffffffffffffff1614156117fb576040517f08c379a00000000000000000000000000000000000000000000000000000000081526004016117f290612b05565b60405180910390fd5b6118048161174a565b15611844576040517f08c379a000000000000000000000000000000000000000000000000000000000815260040161183b90612a65565b60405180910390fd5b611852600083836001611a3f565b61185b8161174a565b1561189b576040517f08c379a000000000000000000000000000000000000000000000000000000000815260040161189290612a65565b60405180910390fd5b6001600360008473ffffffffffffffffffffffffffffffffffffffff1673ffffffffffffffffffffffffffffffffffffffff16815260200190815260200160002060008282540192505081905550816002600083815260200190815260200160002060006101000a81548173ffffffffffffffffffffffffffffffffffffffff021916908373ffffffffffffffffffffffffffffffffffffffff160217905550808273ffffffffffffffffffffffffffffffffffffffff16600073ffffffffffffffffffffffffffffffffffffffff167fddf252ad1be2c89b69c2b068fc378daa952ba7f163c4a11628f55a4df523b3ef60405160405180910390a46119a5600083836001611b9f565b5050565b80600b600084815260200190815260200160002090805190602001906119d09291906120dd565b505050565b60007f01ffc9a7000000000000000000000000000000000000000000000000000000007bffffffffffffffffffffffffffffffffffffffffffffffffffffffff1916827bffffffffffffffffffffffffffffffffffffffffffffffffffffffff1916149050919050565b611a4b84848484611d3c565b6001811115611a8f576040517f08c379a0000000000000000000000000000000000000000000000000000000008152600401611a8690612c05565b60405180910390fd5b6000829050600073ffffffffffffffffffffffffffffffffffffffff168573ffffffffffffffffffffffffffffffffffffffff161415611ad757611ad281611d42565b611b16565b8373ffffffffffffffffffffffffffffffffffffffff168573ffffffffffffffffffffffffffffffffffffffff1614611b1557611b148582611d8b565b5b5b600073ffffffffffffffffffffffffffffffffffffffff168473ffffffffffffffffffffffffffffffffffffffff161415611b5957611b5481611ef8565b611b98565b8473ffffffffffffffffffffffffffffffffffffffff168473ffffffffffffffffffffffffffffffffffffffff1614611b9757611b96848261203b565b5b5b5050505050565b50505050565b6000611bc68473ffffffffffffffffffffffffffffffffffffffff166120ba565b15611d2f578373ffffffffffffffffffffffffffffffffffffffff1663150b7a02611bef610fb0565b8786866040518563ffffffff1660e01b8152600401611c11949392919061291a565b602060405180830381600087803b158015611c2b57600080fd5b505af1925050508015611c5c57506040513d601f19601f82011682018060405250810190611c5991906124f0565b60015b611cdf573d8060008114611c8c576040519150601f19603f3d011682016040523d82523d6000602084013e611c91565b606091505b50600081511415611cd7576040517f08c379a0000000000000000000000000000000000000000000000000000000008152600401611cce90612a05565b60405180910390fd5b805181602001fd5b63150b7a0260e01b7bffffffffffffffffffffffffffffffffffffffffffffffffffffffff1916817bffffffffffffffffffffffffffffffffffffffffffffffffffffffff191614915050611d34565b600190505b949350505050565b50505050565b6008805490506009600083815260200190815260200160002081905550600881908060018154018082558091505060019003906000526020600020016000909190919091505550565b60006001611d98846109c7565b611da29190612d38565b9050600060076000848152602001908152602001600020549050818114611e87576000600660008673ffffffffffffffffffffffffffffffffffffffff1673ffffffffffffffffffffffffffffffffffffffff168152602001908152602001600020600084815260200190815260200160002054905080600660008773ffffffffffffffffffffffffffffffffffffffff1673ffffffffffffffffffffffffffffffffffffffff168152602001908152602001600020600084815260200190815260200160002081905550816007600083815260200190815260200160002081905550505b6007600084815260200190815260200160002060009055600660008573ffffffffffffffffffffffffffffffffffffffff1673ffffffffffffffffffffffffffffffffffffffff16815260200190815260200160002060008381526020019081526020016000206000905550505050565b60006001600880549050611f0c9190612d38565b9050600060096000848152602001908152602001600020549050600060088381548110611f62577f4e487b7100000000000000000000000000000000000000000000000000000000600052603260045260246000fd5b906000526020600020015490508060088381548110611faa577f4e487b7100000000000000000000000000000000000000000000000000000000600052603260045260246000fd5b90600052602060002001819055508160096000838152602001908152602001600020819055506009600085815260200190815260200160002060009055600880548061201f577f4e487b7100000000000000000000000000000000000000000000000000000000600052603160045260246000fd5b6001900381819060005260206000200160009055905550505050565b6000612046836109c7565b905081600660008573ffffffffffffffffffffffffffffffffffffffff1673ffffffffffffffffffffffffffffffffffffffff168152602001908152602001600020600083815260200190815260200160002081905550806007600084815260200190815260200160002081905550505050565b6000808273ffffffffffffffffffffffffffffffffffffffff163b119050919050565b8280546120e990612e22565b90600052602060002090601f01602090048101928261210b5760008555612152565b82601f1061212457805160ff1916838001178555612152565b82800160010185558215612152579182015b82811115612151578251825591602001919060010190612136565b5b50905061215f9190612163565b5090565b5b8082111561217c576000816000905550600101612164565b5090565b600061219361218e84612c65565b612c40565b9050828152602081018484840111156121ab57600080fd5b6121b6848285612de0565b509392505050565b60006121d16121cc84612c96565b612c40565b9050828152602081018484840111156121e957600080fd5b6121f4848285612de0565b509392505050565b60008135905061220b81613442565b92915050565b60008135905061222081613459565b92915050565b60008135905061223581613470565b92915050565b60008151905061224a81613470565b92915050565b600082601f83011261226157600080fd5b8135612271848260208601612180565b91505092915050565b600082601f83011261228b57600080fd5b813561229b8482602086016121be565b91505092915050565b6000813590506122b381613487565b92915050565b6000602082840312156122cb57600080fd5b60006122d9848285016121fc565b91505092915050565b600080604083850312156122f557600080fd5b6000612303858286016121fc565b9250506020612314858286016121fc565b9150509250929050565b60008060006060848603121561233357600080fd5b6000612341868287016121fc565b9350506020612352868287016121fc565b9250506040612363868287016122a4565b9150509250925092565b6000806000806080858703121561238357600080fd5b6000612391878288016121fc565b94505060206123a2878288016121fc565b93505060406123b3878288016122a4565b925050606085013567ffffffffffffffff8111156123d057600080fd5b6123dc87828801612250565b91505092959194509250565b600080604083850312156123fb57600080fd5b6000612409858286016121fc565b925050602061241a85828601612211565b9150509250929050565b6000806040838503121561243757600080fd5b6000612445858286016121fc565b9250506020612456858286016122a4565b9150509250929050565b60008060006060848603121561247557600080fd5b6000612483868287016121fc565b9350506020612494868287016122a4565b925050604084013567ffffffffffffffff8111156124b157600080fd5b6124bd8682870161227a565b9150509250925092565b6000602082840312156124d957600080fd5b60006124e784828501612226565b91505092915050565b60006020828403121561250257600080fd5b60006125108482850161223b565b91505092915050565b60006020828403121561252b57600080fd5b6000612539848285016122a4565b91505092915050565b600061254e83836128e1565b60208301905092915050565b61256381612d6c565b82525050565b600061257482612cd7565b61257e8185612d05565b935061258983612cc7565b8060005b838110156125ba5781516125a18882612542565b97506125ac83612cf8565b92505060018101905061258d565b5085935050505092915050565b6125d081612d7e565b82525050565b60006125e182612ce2565b6125eb8185612d16565b93506125fb818560208601612def565b61260481612f12565b840191505092915050565b600061261a82612ced565b6126248185612d27565b9350612634818560208601612def565b61263d81612f12565b840191505092915050565b6000612655602d83612d27565b915061266082612f23565b604082019050919050565b6000612678602b83612d27565b915061268382612f72565b604082019050919050565b600061269b603283612d27565b91506126a682612fc1565b604082019050919050565b60006126be602683612d27565b91506126c982613010565b604082019050919050565b60006126e1602583612d27565b91506126ec8261305f565b604082019050919050565b6000612704601c83612d27565b915061270f826130ae565b602082019050919050565b6000612727602483612d27565b9150612732826130d7565b604082019050919050565b600061274a601983612d27565b915061275582613126565b602082019050919050565b600061276d602c83612d27565b91506127788261314f565b604082019050919050565b6000612790602983612d27565b915061279b8261319e565b604082019050919050565b60006127b3602083612d27565b91506127be826131ed565b602082019050919050565b60006127d6602083612d27565b91506127e182613216565b602082019050919050565b60006127f9602f83612d27565b91506128048261323f565b604082019050919050565b600061281c601883612d27565b91506128278261328e565b602082019050919050565b600061283f602183612d27565b915061284a826132b7565b604082019050919050565b6000612862603d83612d27565b915061286d82613306565b604082019050919050565b6000612885603183612d27565b915061289082613355565b604082019050919050565b60006128a8602c83612d27565b91506128b3826133a4565b604082019050919050565b60006128cb603583612d27565b91506128d6826133f3565b604082019050919050565b6128ea81612dd6565b82525050565b6128f981612dd6565b82525050565b6000602082019050612914600083018461255a565b92915050565b600060808201905061292f600083018761255a565b61293c602083018661255a565b61294960408301856128f0565b818103606083015261295b81846125d6565b905095945050505050565b600060208201905081810360008301526129808184612569565b905092915050565b600060208201905061299d60008301846125c7565b92915050565b600060208201905081810360008301526129bd818461260f565b905092915050565b600060208201905081810360008301526129de81612648565b9050919050565b600060208201905081810360008301526129fe8161266b565b9050919050565b60006020820190508181036000830152612a1e8161268e565b9050919050565b60006020820190508181036000830152612a3e816126b1565b9050919050565b60006020820190508181036000830152612a5e816126d4565b9050919050565b60006020820190508181036000830152612a7e816126f7565b9050919050565b60006020820190508181036000830152612a9e8161271a565b9050919050565b60006020820190508181036000830152612abe8161273d565b9050919050565b60006020820190508181036000830152612ade81612760565b9050919050565b60006020820190508181036000830152612afe81612783565b9050919050565b60006020820190508181036000830152612b1e816127a6565b9050919050565b60006020820190508181036000830152612b3e816127c9565b9050919050565b60006020820190508181036000830152612b5e816127ec565b9050919050565b60006020820190508181036000830152612b7e8161280f565b9050919050565b60006020820190508181036000830152612b9e81612832565b9050919050565b60006020820190508181036000830152612bbe81612855565b9050919050565b60006020820190508181036000830152612bde81612878565b9050919050565b60006020820190508181036000830152612bfe8161289b565b9050919050565b60006020820190508181036000830152612c1e816128be565b9050919050565b6000602082019050612c3a60008301846128f0565b92915050565b6000612c4a612c5b565b9050612c568282612e54565b919050565b6000604051905090565b600067ffffffffffffffff821115612c8057612c7f612ee3565b5b612c8982612f12565b9050602081019050919050565b600067ffffffffffffffff821115612cb157612cb0612ee3565b5b612cba82612f12565b9050602081019050919050565b6000819050602082019050919050565b600081519050919050565b600081519050919050565b600081519050919050565b6000602082019050919050565b600082825260208201905092915050565b600082825260208201905092915050565b600082825260208201905092915050565b6000612d4382612dd6565b9150612d4e83612dd6565b925082821015612d6157612d60612e85565b5b828203905092915050565b6000612d7782612db6565b9050919050565b60008115159050919050565b60007fffffffff0000000000000000000000000000000000000000000000000000000082169050919050565b600073ffffffffffffffffffffffffffffffffffffffff82169050919050565b6000819050919050565b82818337600083830152505050565b60005b83811015612e0d578082015181840152602081019050612df2565b83811115612e1c576000848401525b50505050565b60006002820490506001821680612e3a57607f821691505b60208210811415612e4e57612e4d612eb4565b5b50919050565b612e5d82612f12565b810181811067ffffffffffffffff82111715612e7c57612e7b612ee3565b5b80604052505050565b7f4e487b7100000000000000000000000000000000000000000000000000000000600052601160045260246000fd5b7f4e487b7100000000000000000000000000000000000000000000000000000000600052602260045260246000fd5b7f4e487b7100000000000000000000000000000000000000000000000000000000600052604160045260246000fd5b6000601f19601f8301169050919050565b7f4552433732313a2063616c6c6572206973206e6f7420746f6b656e206f776e6560008201527f72206f7220617070726f76656400000000000000000000000000000000000000602082015250565b7f455243373231456e756d657261626c653a206f776e657220696e646578206f7560008201527f74206f6620626f756e6473000000000000000000000000000000000000000000602082015250565b7f4552433732313a207472616e7366657220746f206e6f6e20455243373231526560008201527f63656976657220696d706c656d656e7465720000000000000000000000000000602082015250565b7f4f776e61626c653a206e6577206f776e657220697320746865207a65726f206160008201527f6464726573730000000000000000000000000000000000000000000000000000602082015250565b7f4552433732313a207472616e736665722066726f6d20696e636f72726563742060008201527f6f776e6572000000000000000000000000000000000000000000000000000000602082015250565b7f4552433732313a20746f6b656e20616c7265616479206d696e74656400000000600082015250565b7f4552433732313a207472616e7366657220746f20746865207a65726f2061646460008201527f7265737300000000000000000000000000000000000000000000000000000000602082015250565b7f4552433732313a20617070726f766520746f2063616c6c657200000000000000600082015250565b7f546f6b656e207769746820746869732073657269616c206e756d62657220616c60008201527f7265616479206578697374730000000000000000000000000000000000000000602082015250565b7f4552433732313a2061646472657373207a65726f206973206e6f74206120766160008201527f6c6964206f776e65720000000000000000000000000000000000000000000000602082015250565b7f4552433732313a206d696e7420746f20746865207a65726f2061646472657373600082015250565b7f4f776e61626c653a2063616c6c6572206973206e6f7420746865206f776e6572600082015250565b7f4552433732314d657461646174613a2055524920717565727920666f72206e6f60008201527f6e6578697374656e7420746f6b656e0000000000000000000000000000000000602082015250565b7f4552433732313a20696e76616c696420746f6b656e2049440000000000000000600082015250565b7f4552433732313a20617070726f76616c20746f2063757272656e74206f776e6560008201527f7200000000000000000000000000000000000000000000000000000000000000602082015250565b7f4552433732313a20617070726f76652063616c6c6572206973206e6f7420746f60008201527f6b656e206f776e6572206f7220617070726f76656420666f7220616c6c000000602082015250565b7f4552433732313a207472616e736665722063616c6c6572206973206e6f74206f60008201527f776e6572206e6f7220617070726f766564000000000000000000000000000000602082015250565b7f455243373231456e756d657261626c653a20676c6f62616c20696e646578206f60008201527f7574206f6620626f756e64730000000000000000000000000000000000000000602082015250565b7f455243373231456e756d657261626c653a20636f6e736563757469766520747260008201527f616e7366657273206e6f7420737570706f727465640000000000000000000000602082015250565b61344b81612d6c565b811461345657600080fd5b50565b61346281612d7e565b811461346d57600080fd5b50565b61347981612d8a565b811461348457600080fd5b50565b61349081612dd6565b811461349b57600080fd5b5056fea26469706673582212202fb5e32a304963a71568c70f0511a156a79a67be318df83b1450a34b71f8de0f64736f6c63430008010033",
  "immutableReferences": {},
  "source": "// SPDX-License-Identifier: UNLICENSED\r\n\r\npragma solidity ^0.8.0;\r\n\r\nimport \"@openzeppelin/contracts/token/ERC721/extensions/ERC721Enumerable.sol\";\r\nimport \"@openzeppelin/contracts/access/Ownable.sol\";\r\n\r\ncontract ShoeNFT is ERC721Enumerable, Ownable {\r\n\r\n    mapping(uint256 => string) private _tokenURIs;\r\n    uint256[] public allTokenIds;\r\n\r\n    constructor() ERC721(\"ShoeNFT\", \"SHOE\") {}\r\n\r\n    function mint(address to, uint256 serialNumber, string memory tokenURI) public onlyOwner {\r\n        require(!_exists(serialNumber), \"Token with this serial number already exists\");\r\n        _mint(to, serialNumber);\r\n        _setTokenURI(serialNumber, tokenURI);\r\n        allTokenIds.push(serialNumber); // Add ID to the array\r\n    }\r\n\r\n    function _setTokenURI(uint256 tokenId, string memory _tokenURI) internal virtual {\r\n        _tokenURIs[tokenId] = _tokenURI;\r\n    }\r\n\r\n    function tokenURI(uint256 tokenId) public view virtual override returns (string memory) {\r\n        require(_exists(tokenId), \"ERC721Metadata: URI query for nonexistent token\");\r\n        return _tokenURIs[tokenId];\r\n    }\r\n\r\n    function getAllTokens() public view returns (uint256[] memory) {\r\n        return allTokenIds;\r\n    }\r\n\r\n    function safeTransferFrom(address from, address to, uint256 tokenId) public virtual override {\r\n        require(_isApprovedOrOwner(_msgSender(), tokenId), \"ERC721: transfer caller is not owner nor approved\");\r\n        approve(to, tokenId);\r\n        _safeTransfer(from, to, tokenId, \"\");\r\n    }\r\n\r\n}\r\n",
  "sourcePath": "C:\\Users\\terkrub\\Desktop\\Blockchain-project\\contracts\\ShoeNFT.sol",
  "compiler": {
    "name": "solc",
    "version": "0.8.1+commit.df193b15.Emscripten.clang"
  },
  "schemaVersion": "3.4.16",
  "updatedAt": "2023-10-16T09:41:24.982Z",
  "networkType": "ethereum",
  "devdoc": {
    "kind": "dev",
    "methods": {
      "approve(address,uint256)": {
        "details": "See {IERC721-approve}."
      },
      "balanceOf(address)": {
        "details": "See {IERC721-balanceOf}."
      },
      "getApproved(uint256)": {
        "details": "See {IERC721-getApproved}."
      },
      "isApprovedForAll(address,address)": {
        "details": "See {IERC721-isApprovedForAll}."
      },
      "name()": {
        "details": "See {IERC721Metadata-name}."
      },
      "owner()": {
        "details": "Returns the address of the current owner."
      },
      "ownerOf(uint256)": {
        "details": "See {IERC721-ownerOf}."
      },
      "renounceOwnership()": {
        "details": "Leaves the contract without owner. It will not be possible to call `onlyOwner` functions. Can only be called by the current owner. NOTE: Renouncing ownership will leave the contract without an owner, thereby disabling any functionality that is only available to the owner."
      },
      "safeTransferFrom(address,address,uint256)": {
        "details": "See {IERC721-safeTransferFrom}."
      },
      "safeTransferFrom(address,address,uint256,bytes)": {
        "details": "See {IERC721-safeTransferFrom}."
      },
      "setApprovalForAll(address,bool)": {
        "details": "See {IERC721-setApprovalForAll}."
      },
      "supportsInterface(bytes4)": {
        "details": "See {IERC165-supportsInterface}."
      },
      "symbol()": {
        "details": "See {IERC721Metadata-symbol}."
      },
      "tokenByIndex(uint256)": {
        "details": "See {IERC721Enumerable-tokenByIndex}."
      },
      "tokenOfOwnerByIndex(address,uint256)": {
        "details": "See {IERC721Enumerable-tokenOfOwnerByIndex}."
      },
      "tokenURI(uint256)": {
        "details": "See {IERC721Metadata-tokenURI}."
      },
      "totalSupply()": {
        "details": "See {IERC721Enumerable-totalSupply}."
      },
      "transferFrom(address,address,uint256)": {
        "details": "See {IERC721-transferFrom}."
      },
      "transferOwnership(address)": {
        "details": "Transfers ownership of the contract to a new account (`newOwner`). Can only be called by the current owner."
      }
    },
    "version": 1
  },
  "userdoc": {
    "kind": "user",
    "methods": {},
    "version": 1
  }
}