{
  "contractName": "ShoeNFT",
  "abi": [
    {
      "inputs": [],
      "stateMutability": "nonpayable",
      "type": "constructor"
    },
    {
      "anonymous": false,
      "inputs": [
        {
          "indexed": true,
          "internalType": "address",
          "name": "owner",
          "type": "address"
        },
        {
          "indexed": true,
          "internalType": "address",
          "name": "approved",
          "type": "address"
        },
        {
          "indexed": true,
          "internalType": "uint256",
          "name": "tokenId",
          "type": "uint256"
        }
      ],
      "name": "Approval",
      "type": "event"
    },
    {
      "anonymous": false,
      "inputs": [
        {
          "indexed": true,
          "internalType": "address",
          "name": "owner",
          "type": "address"
        },
        {
          "indexed": true,
          "internalType": "address",
          "name": "operator",
          "type": "address"
        },
        {
          "indexed": false,
          "internalType": "bool",
          "name": "approved",
          "type": "bool"
        }
      ],
      "name": "ApprovalForAll",
      "type": "event"
    },
    {
      "anonymous": false,
      "inputs": [
        {
          "indexed": true,
          "internalType": "address",
          "name": "previousOwner",
          "type": "address"
        },
        {
          "indexed": true,
          "internalType": "address",
          "name": "newOwner",
          "type": "address"
        }
      ],
      "name": "OwnershipTransferred",
      "type": "event"
    },
    {
      "anonymous": false,
      "inputs": [
        {
          "indexed": true,
          "internalType": "address",
          "name": "from",
          "type": "address"
        },
        {
          "indexed": true,
          "internalType": "address",
          "name": "to",
          "type": "address"
        },
        {
          "indexed": true,
          "internalType": "uint256",
          "name": "tokenId",
          "type": "uint256"
        }
      ],
      "name": "Transfer",
      "type": "event"
    },
    {
      "inputs": [
        {
          "internalType": "address",
          "name": "to",
          "type": "address"
        },
        {
          "internalType": "uint256",
          "name": "tokenId",
          "type": "uint256"
        }
      ],
      "name": "approve",
      "outputs": [],
      "stateMutability": "nonpayable",
      "type": "function"
    },
    {
      "inputs": [
        {
          "internalType": "address",
          "name": "owner",
          "type": "address"
        }
      ],
      "name": "balanceOf",
      "outputs": [
        {
          "internalType": "uint256",
          "name": "",
          "type": "uint256"
        }
      ],
      "stateMutability": "view",
      "type": "function",
      "constant": true
    },
    {
      "inputs": [
        {
          "internalType": "uint256",
          "name": "tokenId",
          "type": "uint256"
        }
      ],
      "name": "getApproved",
      "outputs": [
        {
          "internalType": "address",
          "name": "",
          "type": "address"
        }
      ],
      "stateMutability": "view",
      "type": "function",
      "constant": true
    },
    {
      "inputs": [
        {
          "internalType": "address",
          "name": "owner",
          "type": "address"
        },
        {
          "internalType": "address",
          "name": "operator",
          "type": "address"
        }
      ],
      "name": "isApprovedForAll",
      "outputs": [
        {
          "internalType": "bool",
          "name": "",
          "type": "bool"
        }
      ],
      "stateMutability": "view",
      "type": "function",
      "constant": true
    },
    {
      "inputs": [],
      "name": "name",
      "outputs": [
        {
          "internalType": "string",
          "name": "",
          "type": "string"
        }
      ],
      "stateMutability": "view",
      "type": "function",
      "constant": true
    },
    {
      "inputs": [],
      "name": "owner",
      "outputs": [
        {
          "internalType": "address",
          "name": "",
          "type": "address"
        }
      ],
      "stateMutability": "view",
      "type": "function",
      "constant": true
    },
    {
      "inputs": [
        {
          "internalType": "uint256",
          "name": "tokenId",
          "type": "uint256"
        }
      ],
      "name": "ownerOf",
      "outputs": [
        {
          "internalType": "address",
          "name": "",
          "type": "address"
        }
      ],
      "stateMutability": "view",
      "type": "function",
      "constant": true
    },
    {
      "inputs": [],
      "name": "renounceOwnership",
      "outputs": [],
      "stateMutability": "nonpayable",
      "type": "function"
    },
    {
      "inputs": [
        {
          "internalType": "address",
          "name": "from",
          "type": "address"
        },
        {
          "internalType": "address",
          "name": "to",
          "type": "address"
        },
        {
          "internalType": "uint256",
          "name": "tokenId",
          "type": "uint256"
        }
      ],
      "name": "safeTransferFrom",
      "outputs": [],
      "stateMutability": "nonpayable",
      "type": "function"
    },
    {
      "inputs": [
        {
          "internalType": "address",
          "name": "from",
          "type": "address"
        },
        {
          "internalType": "address",
          "name": "to",
          "type": "address"
        },
        {
          "internalType": "uint256",
          "name": "tokenId",
          "type": "uint256"
        },
        {
          "internalType": "bytes",
          "name": "data",
          "type": "bytes"
        }
      ],
      "name": "safeTransferFrom",
      "outputs": [],
      "stateMutability": "nonpayable",
      "type": "function"
    },
    {
      "inputs": [
        {
          "internalType": "address",
          "name": "operator",
          "type": "address"
        },
        {
          "internalType": "bool",
          "name": "approved",
          "type": "bool"
        }
      ],
      "name": "setApprovalForAll",
      "outputs": [],
      "stateMutability": "nonpayable",
      "type": "function"
    },
    {
      "inputs": [
        {
          "internalType": "bytes4",
          "name": "interfaceId",
          "type": "bytes4"
        }
      ],
      "name": "supportsInterface",
      "outputs": [
        {
          "internalType": "bool",
          "name": "",
          "type": "bool"
        }
      ],
      "stateMutability": "view",
      "type": "function",
      "constant": true
    },
    {
      "inputs": [],
      "name": "symbol",
      "outputs": [
        {
          "internalType": "string",
          "name": "",
          "type": "string"
        }
      ],
      "stateMutability": "view",
      "type": "function",
      "constant": true
    },
    {
      "inputs": [
        {
          "internalType": "uint256",
          "name": "index",
          "type": "uint256"
        }
      ],
      "name": "tokenByIndex",
      "outputs": [
        {
          "internalType": "uint256",
          "name": "",
          "type": "uint256"
        }
      ],
      "stateMutability": "view",
      "type": "function",
      "constant": true
    },
    {
      "inputs": [
        {
          "internalType": "address",
          "name": "owner",
          "type": "address"
        },
        {
          "internalType": "uint256",
          "name": "index",
          "type": "uint256"
        }
      ],
      "name": "tokenOfOwnerByIndex",
      "outputs": [
        {
          "internalType": "uint256",
          "name": "",
          "type": "uint256"
        }
      ],
      "stateMutability": "view",
      "type": "function",
      "constant": true
    },
    {
      "inputs": [],
      "name": "totalSupply",
      "outputs": [
        {
          "internalType": "uint256",
          "name": "",
          "type": "uint256"
        }
      ],
      "stateMutability": "view",
      "type": "function",
      "constant": true
    },
    {
      "inputs": [
        {
          "internalType": "address",
          "name": "from",
          "type": "address"
        },
        {
          "internalType": "address",
          "name": "to",
          "type": "address"
        },
        {
          "internalType": "uint256",
          "name": "tokenId",
          "type": "uint256"
        }
      ],
      "name": "transferFrom",
      "outputs": [],
      "stateMutability": "nonpayable",
      "type": "function"
    },
    {
      "inputs": [
        {
          "internalType": "address",
          "name": "newOwner",
          "type": "address"
        }
      ],
      "name": "transferOwnership",
      "outputs": [],
      "stateMutability": "nonpayable",
      "type": "function"
    },
    {
      "inputs": [
        {
          "internalType": "address",
          "name": "to",
          "type": "address"
        },
        {
          "internalType": "string",
          "name": "tokenURI",
          "type": "string"
        }
      ],
      "name": "mint",
      "outputs": [
        {
          "internalType": "uint256",
          "name": "",
          "type": "uint256"
        }
      ],
      "stateMutability": "nonpayable",
      "type": "function"
    },
    {
      "inputs": [
        {
          "internalType": "uint256",
          "name": "tokenId",
          "type": "uint256"
        }
      ],
      "name": "tokenURI",
      "outputs": [
        {
          "internalType": "string",
          "name": "",
          "type": "string"
        }
      ],
      "stateMutability": "view",
      "type": "function",
      "constant": true
    },
    {
      "inputs": [
        {
          "internalType": "address",
          "name": "to",
          "type": "address"
        },
        {
          "internalType": "uint256",
          "name": "tokenId",
          "type": "uint256"
        }
      ],
      "name": "transferToken",
      "outputs": [],
      "stateMutability": "nonpayable",
      "type": "function"
    }
  ],
  "bytecode": "0x60806040523480156200001157600080fd5b506040518060400160405280600781526020017f53686f654e4654000000000000000000000000000000000000000000000000008152506040518060400160405280600481526020017f53484f4500000000000000000000000000000000000000000000000000000000815250816000908051906020019062000096929190620001a6565b508060019080519060200190620000af929190620001a6565b505050620000d2620000c6620000d860201b60201c565b620000e060201b60201c565b620002bb565b600033905090565b6000600a60009054906101000a900473ffffffffffffffffffffffffffffffffffffffff16905081600a60006101000a81548173ffffffffffffffffffffffffffffffffffffffff021916908373ffffffffffffffffffffffffffffffffffffffff1602179055508173ffffffffffffffffffffffffffffffffffffffff168173ffffffffffffffffffffffffffffffffffffffff167f8be0079c531659141344cd1fd0a4f28419497f9722a3daafe3b4186f6b6457e060405160405180910390a35050565b828054620001b49062000256565b90600052602060002090601f016020900481019282620001d8576000855562000224565b82601f10620001f357805160ff191683800117855562000224565b8280016001018555821562000224579182015b828111156200022357825182559160200191906001019062000206565b5b50905062000233919062000237565b5090565b5b808211156200025257600081600090555060010162000238565b5090565b600060028204905060018216806200026f57607f821691505b602082108114156200028657620002856200028c565b5b50919050565b7f4e487b7100000000000000000000000000000000000000000000000000000000600052602260045260246000fd5b6132b980620002cb6000396000f3fe608060405234801561001057600080fd5b50600436106101375760003560e01c80636352211e116100b8578063a22cb4651161007c578063a22cb4651461034e578063b88d4fde1461036a578063c87b56dd14610386578063d0def521146103b6578063e985e9c5146103e6578063f2fde38b1461041657610137565b80636352211e146102a857806370a08231146102d8578063715018a6146103085780638da5cb5b1461031257806395d89b411461033057610137565b806318160ddd116100ff57806318160ddd146101f257806323b872dd146102105780632f745c591461022c57806342842e0e1461025c5780634f6ccce71461027857610137565b806301ffc9a71461013c57806306fdde031461016c578063081812fc1461018a578063095ea7b3146101ba5780631072cbea146101d6575b600080fd5b610156600480360381019061015191906123c8565b610432565b60405161016391906127bf565b60405180910390f35b6101746104ac565b60405161018191906127da565b60405180910390f35b6101a4600480360381019061019f919061241a565b61053e565b6040516101b19190612758565b60405180910390f35b6101d460048036038101906101cf919061238c565b610584565b005b6101f060048036038101906101eb919061238c565b61069c565b005b6101fa610702565b6040516102079190612a3c565b60405180910390f35b61022a60048036038101906102259190612232565b61070f565b005b6102466004803603810190610241919061238c565b61076f565b6040516102539190612a3c565b60405180910390f35b61027660048036038101906102719190612232565b610814565b005b610292600480360381019061028d919061241a565b610834565b60405161029f9190612a3c565b60405180910390f35b6102c260048036038101906102bd919061241a565b6108cb565b6040516102cf9190612758565b60405180910390f35b6102f260048036038101906102ed91906121cd565b610952565b6040516102ff9190612a3c565b60405180910390f35b610310610a0a565b005b61031a610a1e565b6040516103279190612758565b60405180910390f35b610338610a48565b60405161034591906127da565b60405180910390f35b610368600480360381019061036391906122fc565b610ada565b005b610384600480360381019061037f9190612281565b610af0565b005b6103a0600480360381019061039b919061241a565b610b52565b6040516103ad91906127da565b60405180910390f35b6103d060048036038101906103cb9190612338565b610c3f565b6040516103dd9190612a3c565b60405180910390f35b61040060048036038101906103fb91906121f6565b610c7f565b60405161040d91906127bf565b60405180910390f35b610430600480360381019061042b91906121cd565b610d13565b005b60007f780e9d63000000000000000000000000000000000000000000000000000000007bffffffffffffffffffffffffffffffffffffffffffffffffffffffff1916827bffffffffffffffffffffffffffffffffffffffffffffffffffffffff191614806104a557506104a482610d97565b5b9050919050565b6060600080546104bb90612c56565b80601f01602080910402602001604051908101604052809291908181526020018280546104e790612c56565b80156105345780601f1061050957610100808354040283529160200191610534565b820191906000526020600020905b81548152906001019060200180831161051757829003601f168201915b5050505050905090565b600061054982610e79565b6004600083815260200190815260200160002060009054906101000a900473ffffffffffffffffffffffffffffffffffffffff169050919050565b600061058f826108cb565b90508073ffffffffffffffffffffffffffffffffffffffff168373ffffffffffffffffffffffffffffffffffffffff161415610600576040517f08c379a00000000000000000000000000000000000000000000000000000000081526004016105f79061299c565b60405180910390fd5b8073ffffffffffffffffffffffffffffffffffffffff1661061f610ec4565b73ffffffffffffffffffffffffffffffffffffffff16148061064e575061064d81610648610ec4565b610c7f565b5b61068d576040517f08c379a0000000000000000000000000000000000000000000000000000000008152600401610684906129bc565b60405180910390fd5b6106978383610ecc565b505050565b6106ad6106a7610ec4565b82610f85565b6106ec576040517f08c379a00000000000000000000000000000000000000000000000000000000081526004016106e3906129dc565b60405180910390fd5b6106fe6106f7610ec4565b838361101a565b5050565b6000600880549050905090565b61072061071a610ec4565b82610f85565b61075f576040517f08c379a0000000000000000000000000000000000000000000000000000000008152600401610756906127fc565b60405180910390fd5b61076a83838361101a565b505050565b600061077a83610952565b82106107bb576040517f08c379a00000000000000000000000000000000000000000000000000000000081526004016107b29061281c565b60405180910390fd5b600660008473ffffffffffffffffffffffffffffffffffffffff1673ffffffffffffffffffffffffffffffffffffffff168152602001908152602001600020600083815260200190815260200160002054905092915050565b61082f83838360405180602001604052806000815250610af0565b505050565b600061083e610702565b821061087f576040517f08c379a0000000000000000000000000000000000000000000000000000000008152600401610876906129fc565b60405180910390fd5b600882815481106108b9577f4e487b7100000000000000000000000000000000000000000000000000000000600052603260045260246000fd5b90600052602060002001549050919050565b6000806108d783611314565b9050600073ffffffffffffffffffffffffffffffffffffffff168173ffffffffffffffffffffffffffffffffffffffff161415610949576040517f08c379a00000000000000000000000000000000000000000000000000000000081526004016109409061297c565b60405180910390fd5b80915050919050565b60008073ffffffffffffffffffffffffffffffffffffffff168273ffffffffffffffffffffffffffffffffffffffff1614156109c3576040517f08c379a00000000000000000000000000000000000000000000000000000000081526004016109ba906128fc565b60405180910390fd5b600360008373ffffffffffffffffffffffffffffffffffffffff1673ffffffffffffffffffffffffffffffffffffffff168152602001908152602001600020549050919050565b610a12611351565b610a1c60006113cf565b565b6000600a60009054906101000a900473ffffffffffffffffffffffffffffffffffffffff16905090565b606060018054610a5790612c56565b80601f0160208091040260200160405190810160405280929190818152602001828054610a8390612c56565b8015610ad05780601f10610aa557610100808354040283529160200191610ad0565b820191906000526020600020905b815481529060010190602001808311610ab357829003601f168201915b5050505050905090565b610aec610ae5610ec4565b8383611495565b5050565b610b01610afb610ec4565b83610f85565b610b40576040517f08c379a0000000000000000000000000000000000000000000000000000000008152600401610b37906127fc565b60405180910390fd5b610b4c84848484611602565b50505050565b6060610b5d8261165e565b610b9c576040517f08c379a0000000000000000000000000000000000000000000000000000000008152600401610b939061295c565b60405180910390fd5b600b60008381526020019081526020016000208054610bba90612c56565b80601f0160208091040260200160405190810160405280929190818152602001828054610be690612c56565b8015610c335780601f10610c0857610100808354040283529160200191610c33565b820191906000526020600020905b815481529060010190602001808311610c1657829003601f168201915b50505050509050919050565b6000610c49611351565b60006001610c55610702565b610c5f9190612b16565b9050610c6b848261169f565b610c7581846118bd565b8091505092915050565b6000600560008473ffffffffffffffffffffffffffffffffffffffff1673ffffffffffffffffffffffffffffffffffffffff16815260200190815260200160002060008373ffffffffffffffffffffffffffffffffffffffff1673ffffffffffffffffffffffffffffffffffffffff16815260200190815260200160002060009054906101000a900460ff16905092915050565b610d1b611351565b600073ffffffffffffffffffffffffffffffffffffffff168173ffffffffffffffffffffffffffffffffffffffff161415610d8b576040517f08c379a0000000000000000000000000000000000000000000000000000000008152600401610d829061285c565b60405180910390fd5b610d94816113cf565b50565b60007f80ac58cd000000000000000000000000000000000000000000000000000000007bffffffffffffffffffffffffffffffffffffffffffffffffffffffff1916827bffffffffffffffffffffffffffffffffffffffffffffffffffffffff19161480610e6257507f5b5e139f000000000000000000000000000000000000000000000000000000007bffffffffffffffffffffffffffffffffffffffffffffffffffffffff1916827bffffffffffffffffffffffffffffffffffffffffffffffffffffffff1916145b80610e725750610e71826118e9565b5b9050919050565b610e828161165e565b610ec1576040517f08c379a0000000000000000000000000000000000000000000000000000000008152600401610eb89061297c565b60405180910390fd5b50565b600033905090565b816004600083815260200190815260200160002060006101000a81548173ffffffffffffffffffffffffffffffffffffffff021916908373ffffffffffffffffffffffffffffffffffffffff160217905550808273ffffffffffffffffffffffffffffffffffffffff16610f3f836108cb565b73ffffffffffffffffffffffffffffffffffffffff167f8c5be1e5ebec7d5bd14f71427d1e84f3dd0314c0f7b2291e5b200ac8c7c3b92560405160405180910390a45050565b600080610f91836108cb565b90508073ffffffffffffffffffffffffffffffffffffffff168473ffffffffffffffffffffffffffffffffffffffff161480610fd35750610fd28185610c7f565b5b8061101157508373ffffffffffffffffffffffffffffffffffffffff16610ff98461053e565b73ffffffffffffffffffffffffffffffffffffffff16145b91505092915050565b8273ffffffffffffffffffffffffffffffffffffffff1661103a826108cb565b73ffffffffffffffffffffffffffffffffffffffff1614611090576040517f08c379a00000000000000000000000000000000000000000000000000000000081526004016110879061287c565b60405180910390fd5b600073ffffffffffffffffffffffffffffffffffffffff168273ffffffffffffffffffffffffffffffffffffffff161415611100576040517f08c379a00000000000000000000000000000000000000000000000000000000081526004016110f7906128bc565b60405180910390fd5b61110d8383836001611953565b8273ffffffffffffffffffffffffffffffffffffffff1661112d826108cb565b73ffffffffffffffffffffffffffffffffffffffff1614611183576040517f08c379a000000000000000000000000000000000000000000000000000000000815260040161117a9061287c565b60405180910390fd5b6004600082815260200190815260200160002060006101000a81549073ffffffffffffffffffffffffffffffffffffffff02191690556001600360008573ffffffffffffffffffffffffffffffffffffffff1673ffffffffffffffffffffffffffffffffffffffff168152602001908152602001600020600082825403925050819055506001600360008473ffffffffffffffffffffffffffffffffffffffff1673ffffffffffffffffffffffffffffffffffffffff16815260200190815260200160002060008282540192505081905550816002600083815260200190815260200160002060006101000a81548173ffffffffffffffffffffffffffffffffffffffff021916908373ffffffffffffffffffffffffffffffffffffffff160217905550808273ffffffffffffffffffffffffffffffffffffffff168473ffffffffffffffffffffffffffffffffffffffff167fddf252ad1be2c89b69c2b068fc378daa952ba7f163c4a11628f55a4df523b3ef60405160405180910390a461130f8383836001611ab3565b505050565b60006002600083815260200190815260200160002060009054906101000a900473ffffffffffffffffffffffffffffffffffffffff169050919050565b611359610ec4565b73ffffffffffffffffffffffffffffffffffffffff16611377610a1e565b73ffffffffffffffffffffffffffffffffffffffff16146113cd576040517f08c379a00000000000000000000000000000000000000000000000000000000081526004016113c49061293c565b60405180910390fd5b565b6000600a60009054906101000a900473ffffffffffffffffffffffffffffffffffffffff16905081600a60006101000a81548173ffffffffffffffffffffffffffffffffffffffff021916908373ffffffffffffffffffffffffffffffffffffffff1602179055508173ffffffffffffffffffffffffffffffffffffffff168173ffffffffffffffffffffffffffffffffffffffff167f8be0079c531659141344cd1fd0a4f28419497f9722a3daafe3b4186f6b6457e060405160405180910390a35050565b8173ffffffffffffffffffffffffffffffffffffffff168373ffffffffffffffffffffffffffffffffffffffff161415611504576040517f08c379a00000000000000000000000000000000000000000000000000000000081526004016114fb906128dc565b60405180910390fd5b80600560008573ffffffffffffffffffffffffffffffffffffffff1673ffffffffffffffffffffffffffffffffffffffff16815260200190815260200160002060008473ffffffffffffffffffffffffffffffffffffffff1673ffffffffffffffffffffffffffffffffffffffff16815260200190815260200160002060006101000a81548160ff0219169083151502179055508173ffffffffffffffffffffffffffffffffffffffff168373ffffffffffffffffffffffffffffffffffffffff167f17307eab39ab6107e8899845ad3d59bd9653f200f220920489ca2b5937696c31836040516115f591906127bf565b60405180910390a3505050565b61160d84848461101a565b61161984848484611ab9565b611658576040517f08c379a000000000000000000000000000000000000000000000000000000000815260040161164f9061283c565b60405180910390fd5b50505050565b60008073ffffffffffffffffffffffffffffffffffffffff1661168083611314565b73ffffffffffffffffffffffffffffffffffffffff1614159050919050565b600073ffffffffffffffffffffffffffffffffffffffff168273ffffffffffffffffffffffffffffffffffffffff16141561170f576040517f08c379a00000000000000000000000000000000000000000000000000000000081526004016117069061291c565b60405180910390fd5b6117188161165e565b15611758576040517f08c379a000000000000000000000000000000000000000000000000000000000815260040161174f9061289c565b60405180910390fd5b611766600083836001611953565b61176f8161165e565b156117af576040517f08c379a00000000000000000000000000000000000000000000000000000000081526004016117a69061289c565b60405180910390fd5b6001600360008473ffffffffffffffffffffffffffffffffffffffff1673ffffffffffffffffffffffffffffffffffffffff16815260200190815260200160002060008282540192505081905550816002600083815260200190815260200160002060006101000a81548173ffffffffffffffffffffffffffffffffffffffff021916908373ffffffffffffffffffffffffffffffffffffffff160217905550808273ffffffffffffffffffffffffffffffffffffffff16600073ffffffffffffffffffffffffffffffffffffffff167fddf252ad1be2c89b69c2b068fc378daa952ba7f163c4a11628f55a4df523b3ef60405160405180910390a46118b9600083836001611ab3565b5050565b80600b600084815260200190815260200160002090805190602001906118e4929190611ff1565b505050565b60007f01ffc9a7000000000000000000000000000000000000000000000000000000007bffffffffffffffffffffffffffffffffffffffffffffffffffffffff1916827bffffffffffffffffffffffffffffffffffffffffffffffffffffffff1916149050919050565b61195f84848484611c50565b60018111156119a3576040517f08c379a000000000000000000000000000000000000000000000000000000000815260040161199a90612a1c565b60405180910390fd5b6000829050600073ffffffffffffffffffffffffffffffffffffffff168573ffffffffffffffffffffffffffffffffffffffff1614156119eb576119e681611c56565b611a2a565b8373ffffffffffffffffffffffffffffffffffffffff168573ffffffffffffffffffffffffffffffffffffffff1614611a2957611a288582611c9f565b5b5b600073ffffffffffffffffffffffffffffffffffffffff168473ffffffffffffffffffffffffffffffffffffffff161415611a6d57611a6881611e0c565b611aac565b8473ffffffffffffffffffffffffffffffffffffffff168473ffffffffffffffffffffffffffffffffffffffff1614611aab57611aaa8482611f4f565b5b5b5050505050565b50505050565b6000611ada8473ffffffffffffffffffffffffffffffffffffffff16611fce565b15611c43578373ffffffffffffffffffffffffffffffffffffffff1663150b7a02611b03610ec4565b8786866040518563ffffffff1660e01b8152600401611b259493929190612773565b602060405180830381600087803b158015611b3f57600080fd5b505af1925050508015611b7057506040513d601f19601f82011682018060405250810190611b6d91906123f1565b60015b611bf3573d8060008114611ba0576040519150601f19603f3d011682016040523d82523d6000602084013e611ba5565b606091505b50600081511415611beb576040517f08c379a0000000000000000000000000000000000000000000000000000000008152600401611be29061283c565b60405180910390fd5b805181602001fd5b63150b7a0260e01b7bffffffffffffffffffffffffffffffffffffffffffffffffffffffff1916817bffffffffffffffffffffffffffffffffffffffffffffffffffffffff191614915050611c48565b600190505b949350505050565b50505050565b6008805490506009600083815260200190815260200160002081905550600881908060018154018082558091505060019003906000526020600020016000909190919091505550565b60006001611cac84610952565b611cb69190612b6c565b9050600060076000848152602001908152602001600020549050818114611d9b576000600660008673ffffffffffffffffffffffffffffffffffffffff1673ffffffffffffffffffffffffffffffffffffffff168152602001908152602001600020600084815260200190815260200160002054905080600660008773ffffffffffffffffffffffffffffffffffffffff1673ffffffffffffffffffffffffffffffffffffffff168152602001908152602001600020600084815260200190815260200160002081905550816007600083815260200190815260200160002081905550505b6007600084815260200190815260200160002060009055600660008573ffffffffffffffffffffffffffffffffffffffff1673ffffffffffffffffffffffffffffffffffffffff16815260200190815260200160002060008381526020019081526020016000206000905550505050565b60006001600880549050611e209190612b6c565b9050600060096000848152602001908152602001600020549050600060088381548110611e76577f4e487b7100000000000000000000000000000000000000000000000000000000600052603260045260246000fd5b906000526020600020015490508060088381548110611ebe577f4e487b7100000000000000000000000000000000000000000000000000000000600052603260045260246000fd5b906000526020600020018190555081600960008381526020019081526020016000208190555060096000858152602001908152602001600020600090556008805480611f33577f4e487b7100000000000000000000000000000000000000000000000000000000600052603160045260246000fd5b6001900381819060005260206000200160009055905550505050565b6000611f5a83610952565b905081600660008573ffffffffffffffffffffffffffffffffffffffff1673ffffffffffffffffffffffffffffffffffffffff168152602001908152602001600020600083815260200190815260200160002081905550806007600084815260200190815260200160002081905550505050565b6000808273ffffffffffffffffffffffffffffffffffffffff163b119050919050565b828054611ffd90612c56565b90600052602060002090601f01602090048101928261201f5760008555612066565b82601f1061203857805160ff1916838001178555612066565b82800160010185558215612066579182015b8281111561206557825182559160200191906001019061204a565b5b5090506120739190612077565b5090565b5b80821115612090576000816000905550600101612078565b5090565b60006120a76120a284612a7c565b612a57565b9050828152602081018484840111156120bf57600080fd5b6120ca848285612c14565b509392505050565b60006120e56120e084612aad565b612a57565b9050828152602081018484840111156120fd57600080fd5b612108848285612c14565b509392505050565b60008135905061211f81613227565b92915050565b6000813590506121348161323e565b92915050565b60008135905061214981613255565b92915050565b60008151905061215e81613255565b92915050565b600082601f83011261217557600080fd5b8135612185848260208601612094565b91505092915050565b600082601f83011261219f57600080fd5b81356121af8482602086016120d2565b91505092915050565b6000813590506121c78161326c565b92915050565b6000602082840312156121df57600080fd5b60006121ed84828501612110565b91505092915050565b6000806040838503121561220957600080fd5b600061221785828601612110565b925050602061222885828601612110565b9150509250929050565b60008060006060848603121561224757600080fd5b600061225586828701612110565b935050602061226686828701612110565b9250506040612277868287016121b8565b9150509250925092565b6000806000806080858703121561229757600080fd5b60006122a587828801612110565b94505060206122b687828801612110565b93505060406122c7878288016121b8565b925050606085013567ffffffffffffffff8111156122e457600080fd5b6122f087828801612164565b91505092959194509250565b6000806040838503121561230f57600080fd5b600061231d85828601612110565b925050602061232e85828601612125565b9150509250929050565b6000806040838503121561234b57600080fd5b600061235985828601612110565b925050602083013567ffffffffffffffff81111561237657600080fd5b6123828582860161218e565b9150509250929050565b6000806040838503121561239f57600080fd5b60006123ad85828601612110565b92505060206123be858286016121b8565b9150509250929050565b6000602082840312156123da57600080fd5b60006123e88482850161213a565b91505092915050565b60006020828403121561240357600080fd5b60006124118482850161214f565b91505092915050565b60006020828403121561242c57600080fd5b600061243a848285016121b8565b91505092915050565b61244c81612ba0565b82525050565b61245b81612bb2565b82525050565b600061246c82612ade565b6124768185612af4565b9350612486818560208601612c23565b61248f81612d46565b840191505092915050565b60006124a582612ae9565b6124af8185612b05565b93506124bf818560208601612c23565b6124c881612d46565b840191505092915050565b60006124e0602d83612b05565b91506124eb82612d57565b604082019050919050565b6000612503602b83612b05565b915061250e82612da6565b604082019050919050565b6000612526603283612b05565b915061253182612df5565b604082019050919050565b6000612549602683612b05565b915061255482612e44565b604082019050919050565b600061256c602583612b05565b915061257782612e93565b604082019050919050565b600061258f601c83612b05565b915061259a82612ee2565b602082019050919050565b60006125b2602483612b05565b91506125bd82612f0b565b604082019050919050565b60006125d5601983612b05565b91506125e082612f5a565b602082019050919050565b60006125f8602983612b05565b915061260382612f83565b604082019050919050565b600061261b602083612b05565b915061262682612fd2565b602082019050919050565b600061263e602083612b05565b915061264982612ffb565b602082019050919050565b6000612661602f83612b05565b915061266c82613024565b604082019050919050565b6000612684601883612b05565b915061268f82613073565b602082019050919050565b60006126a7602183612b05565b91506126b28261309c565b604082019050919050565b60006126ca603d83612b05565b91506126d5826130eb565b604082019050919050565b60006126ed603183612b05565b91506126f88261313a565b604082019050919050565b6000612710602c83612b05565b915061271b82613189565b604082019050919050565b6000612733603583612b05565b915061273e826131d8565b604082019050919050565b61275281612c0a565b82525050565b600060208201905061276d6000830184612443565b92915050565b60006080820190506127886000830187612443565b6127956020830186612443565b6127a26040830185612749565b81810360608301526127b48184612461565b905095945050505050565b60006020820190506127d46000830184612452565b92915050565b600060208201905081810360008301526127f4818461249a565b905092915050565b60006020820190508181036000830152612815816124d3565b9050919050565b60006020820190508181036000830152612835816124f6565b9050919050565b6000602082019050818103600083015261285581612519565b9050919050565b600060208201905081810360008301526128758161253c565b9050919050565b600060208201905081810360008301526128958161255f565b9050919050565b600060208201905081810360008301526128b581612582565b9050919050565b600060208201905081810360008301526128d5816125a5565b9050919050565b600060208201905081810360008301526128f5816125c8565b9050919050565b60006020820190508181036000830152612915816125eb565b9050919050565b600060208201905081810360008301526129358161260e565b9050919050565b6000602082019050818103600083015261295581612631565b9050919050565b6000602082019050818103600083015261297581612654565b9050919050565b6000602082019050818103600083015261299581612677565b9050919050565b600060208201905081810360008301526129b58161269a565b9050919050565b600060208201905081810360008301526129d5816126bd565b9050919050565b600060208201905081810360008301526129f5816126e0565b9050919050565b60006020820190508181036000830152612a1581612703565b9050919050565b60006020820190508181036000830152612a3581612726565b9050919050565b6000602082019050612a516000830184612749565b92915050565b6000612a61612a72565b9050612a6d8282612c88565b919050565b6000604051905090565b600067ffffffffffffffff821115612a9757612a96612d17565b5b612aa082612d46565b9050602081019050919050565b600067ffffffffffffffff821115612ac857612ac7612d17565b5b612ad182612d46565b9050602081019050919050565b600081519050919050565b600081519050919050565b600082825260208201905092915050565b600082825260208201905092915050565b6000612b2182612c0a565b9150612b2c83612c0a565b9250827fffffffffffffffffffffffffffffffffffffffffffffffffffffffffffffffff03821115612b6157612b60612cb9565b5b828201905092915050565b6000612b7782612c0a565b9150612b8283612c0a565b925082821015612b9557612b94612cb9565b5b828203905092915050565b6000612bab82612bea565b9050919050565b60008115159050919050565b60007fffffffff0000000000000000000000000000000000000000000000000000000082169050919050565b600073ffffffffffffffffffffffffffffffffffffffff82169050919050565b6000819050919050565b82818337600083830152505050565b60005b83811015612c41578082015181840152602081019050612c26565b83811115612c50576000848401525b50505050565b60006002820490506001821680612c6e57607f821691505b60208210811415612c8257612c81612ce8565b5b50919050565b612c9182612d46565b810181811067ffffffffffffffff82111715612cb057612caf612d17565b5b80604052505050565b7f4e487b7100000000000000000000000000000000000000000000000000000000600052601160045260246000fd5b7f4e487b7100000000000000000000000000000000000000000000000000000000600052602260045260246000fd5b7f4e487b7100000000000000000000000000000000000000000000000000000000600052604160045260246000fd5b6000601f19601f8301169050919050565b7f4552433732313a2063616c6c6572206973206e6f7420746f6b656e206f776e6560008201527f72206f7220617070726f76656400000000000000000000000000000000000000602082015250565b7f455243373231456e756d657261626c653a206f776e657220696e646578206f7560008201527f74206f6620626f756e6473000000000000000000000000000000000000000000602082015250565b7f4552433732313a207472616e7366657220746f206e6f6e20455243373231526560008201527f63656976657220696d706c656d656e7465720000000000000000000000000000602082015250565b7f4f776e61626c653a206e6577206f776e657220697320746865207a65726f206160008201527f6464726573730000000000000000000000000000000000000000000000000000602082015250565b7f4552433732313a207472616e736665722066726f6d20696e636f72726563742060008201527f6f776e6572000000000000000000000000000000000000000000000000000000602082015250565b7f4552433732313a20746f6b656e20616c7265616479206d696e74656400000000600082015250565b7f4552433732313a207472616e7366657220746f20746865207a65726f2061646460008201527f7265737300000000000000000000000000000000000000000000000000000000602082015250565b7f4552433732313a20617070726f766520746f2063616c6c657200000000000000600082015250565b7f4552433732313a2061646472657373207a65726f206973206e6f74206120766160008201527f6c6964206f776e65720000000000000000000000000000000000000000000000602082015250565b7f4552433732313a206d696e7420746f20746865207a65726f2061646472657373600082015250565b7f4f776e61626c653a2063616c6c6572206973206e6f7420746865206f776e6572600082015250565b7f4552433732314d657461646174613a2055524920717565727920666f72206e6f60008201527f6e6578697374656e7420746f6b656e0000000000000000000000000000000000602082015250565b7f4552433732313a20696e76616c696420746f6b656e2049440000000000000000600082015250565b7f4552433732313a20617070726f76616c20746f2063757272656e74206f776e6560008201527f7200000000000000000000000000000000000000000000000000000000000000602082015250565b7f4552433732313a20617070726f76652063616c6c6572206973206e6f7420746f60008201527f6b656e206f776e6572206f7220617070726f76656420666f7220616c6c000000602082015250565b7f4552433732313a207472616e736665722063616c6c6572206973206e6f74206f60008201527f776e6572206e6f7220617070726f766564000000000000000000000000000000602082015250565b7f455243373231456e756d657261626c653a20676c6f62616c20696e646578206f60008201527f7574206f6620626f756e64730000000000000000000000000000000000000000602082015250565b7f455243373231456e756d657261626c653a20636f6e736563757469766520747260008201527f616e7366657273206e6f7420737570706f727465640000000000000000000000602082015250565b61323081612ba0565b811461323b57600080fd5b50565b61324781612bb2565b811461325257600080fd5b50565b61325e81612bbe565b811461326957600080fd5b50565b61327581612c0a565b811461328057600080fd5b5056fea264697066735822122022e48092efa6bf98736e5d2e3d2896b169ebdf1dfe343cacdbeea359fc18ce0764736f6c63430008010033",
  "immutableReferences": {},
  "source": "// SPDX-License-Identifier: UNLICENSED\r\n\r\npragma solidity ^0.8.0;\r\n\r\nimport \"@openzeppelin/contracts/token/ERC721/extensions/ERC721Enumerable.sol\";\r\nimport \"@openzeppelin/contracts/access/Ownable.sol\";\r\n\r\ncontract ShoeNFT is ERC721Enumerable, Ownable {\r\n\r\n    mapping(uint256 => string) private _tokenURIs;\r\n\r\n    constructor() ERC721(\"ShoeNFT\", \"SHOE\") {}\r\n\r\n    function mint(address to, string memory tokenURI) public onlyOwner returns (uint256) {\r\n        uint256 newTokenId = totalSupply() + 1;\r\n        _mint(to, newTokenId);\r\n        _setTokenURI(newTokenId, tokenURI);\r\n        return newTokenId;\r\n    }\r\n\r\n    function _setTokenURI(uint256 tokenId, string memory _tokenURI) internal virtual {\r\n        _tokenURIs[tokenId] = _tokenURI;\r\n    }\r\n\r\n    function tokenURI(uint256 tokenId) public view virtual override returns (string memory) {\r\n        require(_exists(tokenId), \"ERC721Metadata: URI query for nonexistent token\");\r\n        return _tokenURIs[tokenId];\r\n    }\r\n\r\n    // Custom function to transfer a token from one address to another\r\n    function transferToken(address to, uint256 tokenId) public {\r\n        require(_isApprovedOrOwner(_msgSender(), tokenId), \"ERC721: transfer caller is not owner nor approved\");\r\n        _transfer(_msgSender(), to, tokenId);\r\n    }\r\n}\r\n",
  "sourcePath": "C:\\Users\\terkrub\\Desktop\\Blockchain-project\\contracts\\ShoeNFT.sol",
  "compiler": {
    "name": "solc",
    "version": "0.8.1+commit.df193b15.Emscripten.clang"
  },
  "schemaVersion": "3.4.16",
  "updatedAt": "2023-09-19T22:38:20.436Z",
  "networkType": "ethereum",
  "devdoc": {
    "kind": "dev",
    "methods": {
      "approve(address,uint256)": {
        "details": "See {IERC721-approve}."
      },
      "balanceOf(address)": {
        "details": "See {IERC721-balanceOf}."
      },
      "getApproved(uint256)": {
        "details": "See {IERC721-getApproved}."
      },
      "isApprovedForAll(address,address)": {
        "details": "See {IERC721-isApprovedForAll}."
      },
      "name()": {
        "details": "See {IERC721Metadata-name}."
      },
      "owner()": {
        "details": "Returns the address of the current owner."
      },
      "ownerOf(uint256)": {
        "details": "See {IERC721-ownerOf}."
      },
      "renounceOwnership()": {
        "details": "Leaves the contract without owner. It will not be possible to call `onlyOwner` functions. Can only be called by the current owner. NOTE: Renouncing ownership will leave the contract without an owner, thereby disabling any functionality that is only available to the owner."
      },
      "safeTransferFrom(address,address,uint256)": {
        "details": "See {IERC721-safeTransferFrom}."
      },
      "safeTransferFrom(address,address,uint256,bytes)": {
        "details": "See {IERC721-safeTransferFrom}."
      },
      "setApprovalForAll(address,bool)": {
        "details": "See {IERC721-setApprovalForAll}."
      },
      "supportsInterface(bytes4)": {
        "details": "See {IERC165-supportsInterface}."
      },
      "symbol()": {
        "details": "See {IERC721Metadata-symbol}."
      },
      "tokenByIndex(uint256)": {
        "details": "See {IERC721Enumerable-tokenByIndex}."
      },
      "tokenOfOwnerByIndex(address,uint256)": {
        "details": "See {IERC721Enumerable-tokenOfOwnerByIndex}."
      },
      "tokenURI(uint256)": {
        "details": "See {IERC721Metadata-tokenURI}."
      },
      "totalSupply()": {
        "details": "See {IERC721Enumerable-totalSupply}."
      },
      "transferFrom(address,address,uint256)": {
        "details": "See {IERC721-transferFrom}."
      },
      "transferOwnership(address)": {
        "details": "Transfers ownership of the contract to a new account (`newOwner`). Can only be called by the current owner."
      }
    },
    "version": 1
  },
  "userdoc": {
    "kind": "user",
    "methods": {},
    "version": 1
  }
}