{
  "contractName": "ShoeNFT",
  "abi": [
    {
      "inputs": [],
      "stateMutability": "nonpayable",
      "type": "constructor"
    },
    {
      "anonymous": false,
      "inputs": [
        {
          "indexed": true,
          "internalType": "address",
          "name": "owner",
          "type": "address"
        },
        {
          "indexed": true,
          "internalType": "address",
          "name": "approved",
          "type": "address"
        },
        {
          "indexed": true,
          "internalType": "uint256",
          "name": "tokenId",
          "type": "uint256"
        }
      ],
      "name": "Approval",
      "type": "event"
    },
    {
      "anonymous": false,
      "inputs": [
        {
          "indexed": true,
          "internalType": "address",
          "name": "owner",
          "type": "address"
        },
        {
          "indexed": true,
          "internalType": "address",
          "name": "operator",
          "type": "address"
        },
        {
          "indexed": false,
          "internalType": "bool",
          "name": "approved",
          "type": "bool"
        }
      ],
      "name": "ApprovalForAll",
      "type": "event"
    },
    {
      "anonymous": false,
      "inputs": [
        {
          "indexed": true,
          "internalType": "address",
          "name": "previousOwner",
          "type": "address"
        },
        {
          "indexed": true,
          "internalType": "address",
          "name": "newOwner",
          "type": "address"
        }
      ],
      "name": "OwnershipTransferred",
      "type": "event"
    },
    {
      "anonymous": false,
      "inputs": [
        {
          "indexed": true,
          "internalType": "address",
          "name": "from",
          "type": "address"
        },
        {
          "indexed": true,
          "internalType": "address",
          "name": "to",
          "type": "address"
        },
        {
          "indexed": true,
          "internalType": "uint256",
          "name": "tokenId",
          "type": "uint256"
        }
      ],
      "name": "Transfer",
      "type": "event"
    },
    {
      "inputs": [
        {
          "internalType": "address",
          "name": "to",
          "type": "address"
        },
        {
          "internalType": "uint256",
          "name": "tokenId",
          "type": "uint256"
        }
      ],
      "name": "approve",
      "outputs": [],
      "stateMutability": "nonpayable",
      "type": "function"
    },
    {
      "inputs": [
        {
          "internalType": "address",
          "name": "owner",
          "type": "address"
        }
      ],
      "name": "balanceOf",
      "outputs": [
        {
          "internalType": "uint256",
          "name": "",
          "type": "uint256"
        }
      ],
      "stateMutability": "view",
      "type": "function"
    },
    {
      "inputs": [
        {
          "internalType": "uint256",
          "name": "tokenId",
          "type": "uint256"
        }
      ],
      "name": "getApproved",
      "outputs": [
        {
          "internalType": "address",
          "name": "",
          "type": "address"
        }
      ],
      "stateMutability": "view",
      "type": "function"
    },
    {
      "inputs": [
        {
          "internalType": "address",
          "name": "owner",
          "type": "address"
        },
        {
          "internalType": "address",
          "name": "operator",
          "type": "address"
        }
      ],
      "name": "isApprovedForAll",
      "outputs": [
        {
          "internalType": "bool",
          "name": "",
          "type": "bool"
        }
      ],
      "stateMutability": "view",
      "type": "function"
    },
    {
      "inputs": [],
      "name": "name",
      "outputs": [
        {
          "internalType": "string",
          "name": "",
          "type": "string"
        }
      ],
      "stateMutability": "view",
      "type": "function"
    },
    {
      "inputs": [],
      "name": "owner",
      "outputs": [
        {
          "internalType": "address",
          "name": "",
          "type": "address"
        }
      ],
      "stateMutability": "view",
      "type": "function"
    },
    {
      "inputs": [
        {
          "internalType": "uint256",
          "name": "tokenId",
          "type": "uint256"
        }
      ],
      "name": "ownerOf",
      "outputs": [
        {
          "internalType": "address",
          "name": "",
          "type": "address"
        }
      ],
      "stateMutability": "view",
      "type": "function"
    },
    {
      "inputs": [],
      "name": "renounceOwnership",
      "outputs": [],
      "stateMutability": "nonpayable",
      "type": "function"
    },
    {
      "inputs": [
        {
          "internalType": "address",
          "name": "from",
          "type": "address"
        },
        {
          "internalType": "address",
          "name": "to",
          "type": "address"
        },
        {
          "internalType": "uint256",
          "name": "tokenId",
          "type": "uint256"
        }
      ],
      "name": "safeTransferFrom",
      "outputs": [],
      "stateMutability": "nonpayable",
      "type": "function"
    },
    {
      "inputs": [
        {
          "internalType": "address",
          "name": "from",
          "type": "address"
        },
        {
          "internalType": "address",
          "name": "to",
          "type": "address"
        },
        {
          "internalType": "uint256",
          "name": "tokenId",
          "type": "uint256"
        },
        {
          "internalType": "bytes",
          "name": "data",
          "type": "bytes"
        }
      ],
      "name": "safeTransferFrom",
      "outputs": [],
      "stateMutability": "nonpayable",
      "type": "function"
    },
    {
      "inputs": [
        {
          "internalType": "address",
          "name": "operator",
          "type": "address"
        },
        {
          "internalType": "bool",
          "name": "approved",
          "type": "bool"
        }
      ],
      "name": "setApprovalForAll",
      "outputs": [],
      "stateMutability": "nonpayable",
      "type": "function"
    },
    {
      "inputs": [
        {
          "internalType": "bytes4",
          "name": "interfaceId",
          "type": "bytes4"
        }
      ],
      "name": "supportsInterface",
      "outputs": [
        {
          "internalType": "bool",
          "name": "",
          "type": "bool"
        }
      ],
      "stateMutability": "view",
      "type": "function"
    },
    {
      "inputs": [],
      "name": "symbol",
      "outputs": [
        {
          "internalType": "string",
          "name": "",
          "type": "string"
        }
      ],
      "stateMutability": "view",
      "type": "function"
    },
    {
      "inputs": [
        {
          "internalType": "uint256",
          "name": "index",
          "type": "uint256"
        }
      ],
      "name": "tokenByIndex",
      "outputs": [
        {
          "internalType": "uint256",
          "name": "",
          "type": "uint256"
        }
      ],
      "stateMutability": "view",
      "type": "function"
    },
    {
      "inputs": [
        {
          "internalType": "address",
          "name": "owner",
          "type": "address"
        },
        {
          "internalType": "uint256",
          "name": "index",
          "type": "uint256"
        }
      ],
      "name": "tokenOfOwnerByIndex",
      "outputs": [
        {
          "internalType": "uint256",
          "name": "",
          "type": "uint256"
        }
      ],
      "stateMutability": "view",
      "type": "function"
    },
    {
      "inputs": [],
      "name": "totalSupply",
      "outputs": [
        {
          "internalType": "uint256",
          "name": "",
          "type": "uint256"
        }
      ],
      "stateMutability": "view",
      "type": "function"
    },
    {
      "inputs": [
        {
          "internalType": "address",
          "name": "from",
          "type": "address"
        },
        {
          "internalType": "address",
          "name": "to",
          "type": "address"
        },
        {
          "internalType": "uint256",
          "name": "tokenId",
          "type": "uint256"
        }
      ],
      "name": "transferFrom",
      "outputs": [],
      "stateMutability": "nonpayable",
      "type": "function"
    },
    {
      "inputs": [
        {
          "internalType": "address",
          "name": "newOwner",
          "type": "address"
        }
      ],
      "name": "transferOwnership",
      "outputs": [],
      "stateMutability": "nonpayable",
      "type": "function"
    },
    {
      "inputs": [
        {
          "internalType": "address",
          "name": "to",
          "type": "address"
        },
        {
          "internalType": "string",
          "name": "tokenURI",
          "type": "string"
        }
      ],
      "name": "mint",
      "outputs": [
        {
          "internalType": "uint256",
          "name": "",
          "type": "uint256"
        }
      ],
      "stateMutability": "nonpayable",
      "type": "function"
    },
    {
      "inputs": [
        {
          "internalType": "uint256",
          "name": "tokenId",
          "type": "uint256"
        }
      ],
      "name": "tokenURI",
      "outputs": [
        {
          "internalType": "string",
          "name": "",
          "type": "string"
        }
      ],
      "stateMutability": "view",
      "type": "function"
    }
  ],
  "bytecode": "0x60806040523480156200001157600080fd5b506040518060400160405280600781526020017f53686f654e4654000000000000000000000000000000000000000000000000008152506040518060400160405280600481526020017f53484f4500000000000000000000000000000000000000000000000000000000815250816000908051906020019062000096929190620001a6565b508060019080519060200190620000af929190620001a6565b505050620000d2620000c6620000d860201b60201c565b620000e060201b60201c565b620002bb565b600033905090565b6000600a60009054906101000a900473ffffffffffffffffffffffffffffffffffffffff16905081600a60006101000a81548173ffffffffffffffffffffffffffffffffffffffff021916908373ffffffffffffffffffffffffffffffffffffffff1602179055508173ffffffffffffffffffffffffffffffffffffffff168173ffffffffffffffffffffffffffffffffffffffff167f8be0079c531659141344cd1fd0a4f28419497f9722a3daafe3b4186f6b6457e060405160405180910390a35050565b828054620001b49062000256565b90600052602060002090601f016020900481019282620001d8576000855562000224565b82601f10620001f357805160ff191683800117855562000224565b8280016001018555821562000224579182015b828111156200022357825182559160200191906001019062000206565b5b50905062000233919062000237565b5090565b5b808211156200025257600081600090555060010162000238565b5090565b600060028204905060018216806200026f57607f821691505b602082108114156200028657620002856200028c565b5b50919050565b7f4e487b7100000000000000000000000000000000000000000000000000000000600052602260045260246000fd5b61319180620002cb6000396000f3fe608060405234801561001057600080fd5b506004361061012c5760003560e01c806370a08231116100ad578063b88d4fde11610071578063b88d4fde14610343578063c87b56dd1461035f578063d0def5211461038f578063e985e9c5146103bf578063f2fde38b146103ef5761012c565b806370a08231146102b1578063715018a6146102e15780638da5cb5b146102eb57806395d89b4114610309578063a22cb465146103275761012c565b806323b872dd116100f457806323b872dd146101e95780632f745c591461020557806342842e0e146102355780634f6ccce7146102515780636352211e146102815761012c565b806301ffc9a71461013157806306fdde0314610161578063081812fc1461017f578063095ea7b3146101af57806318160ddd146101cb575b600080fd5b61014b60048036038101906101469190612332565b61040b565b6040516101589190612706565b60405180910390f35b610169610485565b6040516101769190612721565b60405180910390f35b61019960048036038101906101949190612384565b610517565b6040516101a6919061269f565b60405180910390f35b6101c960048036038101906101c491906122f6565b61055d565b005b6101d3610675565b6040516101e09190612963565b60405180910390f35b61020360048036038101906101fe919061219c565b610682565b005b61021f600480360381019061021a91906122f6565b6106e2565b60405161022c9190612963565b60405180910390f35b61024f600480360381019061024a919061219c565b610787565b005b61026b60048036038101906102669190612384565b6107a7565b6040516102789190612963565b60405180910390f35b61029b60048036038101906102969190612384565b61083e565b6040516102a8919061269f565b60405180910390f35b6102cb60048036038101906102c69190612137565b6108c5565b6040516102d89190612963565b60405180910390f35b6102e961097d565b005b6102f3610991565b604051610300919061269f565b60405180910390f35b6103116109bb565b60405161031e9190612721565b60405180910390f35b610341600480360381019061033c9190612266565b610a4d565b005b61035d600480360381019061035891906121eb565b610a63565b005b61037960048036038101906103749190612384565b610ac5565b6040516103869190612721565b60405180910390f35b6103a960048036038101906103a491906122a2565b610bb2565b6040516103b69190612963565b60405180910390f35b6103d960048036038101906103d49190612160565b610be9565b6040516103e69190612706565b60405180910390f35b61040960048036038101906104049190612137565b610c7d565b005b60007f780e9d63000000000000000000000000000000000000000000000000000000007bffffffffffffffffffffffffffffffffffffffffffffffffffffffff1916827bffffffffffffffffffffffffffffffffffffffffffffffffffffffff1916148061047e575061047d82610d01565b5b9050919050565b60606000805461049490612b7d565b80601f01602080910402602001604051908101604052809291908181526020018280546104c090612b7d565b801561050d5780601f106104e25761010080835404028352916020019161050d565b820191906000526020600020905b8154815290600101906020018083116104f057829003601f168201915b5050505050905090565b600061052282610de3565b6004600083815260200190815260200160002060009054906101000a900473ffffffffffffffffffffffffffffffffffffffff169050919050565b60006105688261083e565b90508073ffffffffffffffffffffffffffffffffffffffff168373ffffffffffffffffffffffffffffffffffffffff1614156105d9576040517f08c379a00000000000000000000000000000000000000000000000000000000081526004016105d0906128e3565b60405180910390fd5b8073ffffffffffffffffffffffffffffffffffffffff166105f8610e2e565b73ffffffffffffffffffffffffffffffffffffffff161480610627575061062681610621610e2e565b610be9565b5b610666576040517f08c379a000000000000000000000000000000000000000000000000000000000815260040161065d90612903565b60405180910390fd5b6106708383610e36565b505050565b6000600880549050905090565b61069361068d610e2e565b82610eef565b6106d2576040517f08c379a00000000000000000000000000000000000000000000000000000000081526004016106c990612743565b60405180910390fd5b6106dd838383610f84565b505050565b60006106ed836108c5565b821061072e576040517f08c379a000000000000000000000000000000000000000000000000000000000815260040161072590612763565b60405180910390fd5b600660008473ffffffffffffffffffffffffffffffffffffffff1673ffffffffffffffffffffffffffffffffffffffff168152602001908152602001600020600083815260200190815260200160002054905092915050565b6107a283838360405180602001604052806000815250610a63565b505050565b60006107b1610675565b82106107f2576040517f08c379a00000000000000000000000000000000000000000000000000000000081526004016107e990612923565b60405180910390fd5b6008828154811061082c577f4e487b7100000000000000000000000000000000000000000000000000000000600052603260045260246000fd5b90600052602060002001549050919050565b60008061084a8361127e565b9050600073ffffffffffffffffffffffffffffffffffffffff168173ffffffffffffffffffffffffffffffffffffffff1614156108bc576040517f08c379a00000000000000000000000000000000000000000000000000000000081526004016108b3906128c3565b60405180910390fd5b80915050919050565b60008073ffffffffffffffffffffffffffffffffffffffff168273ffffffffffffffffffffffffffffffffffffffff161415610936576040517f08c379a000000000000000000000000000000000000000000000000000000000815260040161092d90612843565b60405180910390fd5b600360008373ffffffffffffffffffffffffffffffffffffffff1673ffffffffffffffffffffffffffffffffffffffff168152602001908152602001600020549050919050565b6109856112bb565b61098f6000611339565b565b6000600a60009054906101000a900473ffffffffffffffffffffffffffffffffffffffff16905090565b6060600180546109ca90612b7d565b80601f01602080910402602001604051908101604052809291908181526020018280546109f690612b7d565b8015610a435780601f10610a1857610100808354040283529160200191610a43565b820191906000526020600020905b815481529060010190602001808311610a2657829003601f168201915b5050505050905090565b610a5f610a58610e2e565b83836113ff565b5050565b610a74610a6e610e2e565b83610eef565b610ab3576040517f08c379a0000000000000000000000000000000000000000000000000000000008152600401610aaa90612743565b60405180910390fd5b610abf8484848461156c565b50505050565b6060610ad0826115c8565b610b0f576040517f08c379a0000000000000000000000000000000000000000000000000000000008152600401610b06906128a3565b60405180910390fd5b600b60008381526020019081526020016000208054610b2d90612b7d565b80601f0160208091040260200160405190810160405280929190818152602001828054610b5990612b7d565b8015610ba65780601f10610b7b57610100808354040283529160200191610ba6565b820191906000526020600020905b815481529060010190602001808311610b8957829003601f168201915b50505050509050919050565b6000806001610bbf610675565b610bc99190612a3d565b9050610bd58482611609565b610bdf8184611827565b8091505092915050565b6000600560008473ffffffffffffffffffffffffffffffffffffffff1673ffffffffffffffffffffffffffffffffffffffff16815260200190815260200160002060008373ffffffffffffffffffffffffffffffffffffffff1673ffffffffffffffffffffffffffffffffffffffff16815260200190815260200160002060009054906101000a900460ff16905092915050565b610c856112bb565b600073ffffffffffffffffffffffffffffffffffffffff168173ffffffffffffffffffffffffffffffffffffffff161415610cf5576040517f08c379a0000000000000000000000000000000000000000000000000000000008152600401610cec906127a3565b60405180910390fd5b610cfe81611339565b50565b60007f80ac58cd000000000000000000000000000000000000000000000000000000007bffffffffffffffffffffffffffffffffffffffffffffffffffffffff1916827bffffffffffffffffffffffffffffffffffffffffffffffffffffffff19161480610dcc57507f5b5e139f000000000000000000000000000000000000000000000000000000007bffffffffffffffffffffffffffffffffffffffffffffffffffffffff1916827bffffffffffffffffffffffffffffffffffffffffffffffffffffffff1916145b80610ddc5750610ddb82611853565b5b9050919050565b610dec816115c8565b610e2b576040517f08c379a0000000000000000000000000000000000000000000000000000000008152600401610e22906128c3565b60405180910390fd5b50565b600033905090565b816004600083815260200190815260200160002060006101000a81548173ffffffffffffffffffffffffffffffffffffffff021916908373ffffffffffffffffffffffffffffffffffffffff160217905550808273ffffffffffffffffffffffffffffffffffffffff16610ea98361083e565b73ffffffffffffffffffffffffffffffffffffffff167f8c5be1e5ebec7d5bd14f71427d1e84f3dd0314c0f7b2291e5b200ac8c7c3b92560405160405180910390a45050565b600080610efb8361083e565b90508073ffffffffffffffffffffffffffffffffffffffff168473ffffffffffffffffffffffffffffffffffffffff161480610f3d5750610f3c8185610be9565b5b80610f7b57508373ffffffffffffffffffffffffffffffffffffffff16610f6384610517565b73ffffffffffffffffffffffffffffffffffffffff16145b91505092915050565b8273ffffffffffffffffffffffffffffffffffffffff16610fa48261083e565b73ffffffffffffffffffffffffffffffffffffffff1614610ffa576040517f08c379a0000000000000000000000000000000000000000000000000000000008152600401610ff1906127c3565b60405180910390fd5b600073ffffffffffffffffffffffffffffffffffffffff168273ffffffffffffffffffffffffffffffffffffffff16141561106a576040517f08c379a000000000000000000000000000000000000000000000000000000000815260040161106190612803565b60405180910390fd5b61107783838360016118bd565b8273ffffffffffffffffffffffffffffffffffffffff166110978261083e565b73ffffffffffffffffffffffffffffffffffffffff16146110ed576040517f08c379a00000000000000000000000000000000000000000000000000000000081526004016110e4906127c3565b60405180910390fd5b6004600082815260200190815260200160002060006101000a81549073ffffffffffffffffffffffffffffffffffffffff02191690556001600360008573ffffffffffffffffffffffffffffffffffffffff1673ffffffffffffffffffffffffffffffffffffffff168152602001908152602001600020600082825403925050819055506001600360008473ffffffffffffffffffffffffffffffffffffffff1673ffffffffffffffffffffffffffffffffffffffff16815260200190815260200160002060008282540192505081905550816002600083815260200190815260200160002060006101000a81548173ffffffffffffffffffffffffffffffffffffffff021916908373ffffffffffffffffffffffffffffffffffffffff160217905550808273ffffffffffffffffffffffffffffffffffffffff168473ffffffffffffffffffffffffffffffffffffffff167fddf252ad1be2c89b69c2b068fc378daa952ba7f163c4a11628f55a4df523b3ef60405160405180910390a46112798383836001611a1d565b505050565b60006002600083815260200190815260200160002060009054906101000a900473ffffffffffffffffffffffffffffffffffffffff169050919050565b6112c3610e2e565b73ffffffffffffffffffffffffffffffffffffffff166112e1610991565b73ffffffffffffffffffffffffffffffffffffffff1614611337576040517f08c379a000000000000000000000000000000000000000000000000000000000815260040161132e90612883565b60405180910390fd5b565b6000600a60009054906101000a900473ffffffffffffffffffffffffffffffffffffffff16905081600a60006101000a81548173ffffffffffffffffffffffffffffffffffffffff021916908373ffffffffffffffffffffffffffffffffffffffff1602179055508173ffffffffffffffffffffffffffffffffffffffff168173ffffffffffffffffffffffffffffffffffffffff167f8be0079c531659141344cd1fd0a4f28419497f9722a3daafe3b4186f6b6457e060405160405180910390a35050565b8173ffffffffffffffffffffffffffffffffffffffff168373ffffffffffffffffffffffffffffffffffffffff16141561146e576040517f08c379a000000000000000000000000000000000000000000000000000000000815260040161146590612823565b60405180910390fd5b80600560008573ffffffffffffffffffffffffffffffffffffffff1673ffffffffffffffffffffffffffffffffffffffff16815260200190815260200160002060008473ffffffffffffffffffffffffffffffffffffffff1673ffffffffffffffffffffffffffffffffffffffff16815260200190815260200160002060006101000a81548160ff0219169083151502179055508173ffffffffffffffffffffffffffffffffffffffff168373ffffffffffffffffffffffffffffffffffffffff167f17307eab39ab6107e8899845ad3d59bd9653f200f220920489ca2b5937696c318360405161155f9190612706565b60405180910390a3505050565b611577848484610f84565b61158384848484611a23565b6115c2576040517f08c379a00000000000000000000000000000000000000000000000000000000081526004016115b990612783565b60405180910390fd5b50505050565b60008073ffffffffffffffffffffffffffffffffffffffff166115ea8361127e565b73ffffffffffffffffffffffffffffffffffffffff1614159050919050565b600073ffffffffffffffffffffffffffffffffffffffff168273ffffffffffffffffffffffffffffffffffffffff161415611679576040517f08c379a000000000000000000000000000000000000000000000000000000000815260040161167090612863565b60405180910390fd5b611682816115c8565b156116c2576040517f08c379a00000000000000000000000000000000000000000000000000000000081526004016116b9906127e3565b60405180910390fd5b6116d06000838360016118bd565b6116d9816115c8565b15611719576040517f08c379a0000000000000000000000000000000000000000000000000000000008152600401611710906127e3565b60405180910390fd5b6001600360008473ffffffffffffffffffffffffffffffffffffffff1673ffffffffffffffffffffffffffffffffffffffff16815260200190815260200160002060008282540192505081905550816002600083815260200190815260200160002060006101000a81548173ffffffffffffffffffffffffffffffffffffffff021916908373ffffffffffffffffffffffffffffffffffffffff160217905550808273ffffffffffffffffffffffffffffffffffffffff16600073ffffffffffffffffffffffffffffffffffffffff167fddf252ad1be2c89b69c2b068fc378daa952ba7f163c4a11628f55a4df523b3ef60405160405180910390a4611823600083836001611a1d565b5050565b80600b6000848152602001908152602001600020908051906020019061184e929190611f5b565b505050565b60007f01ffc9a7000000000000000000000000000000000000000000000000000000007bffffffffffffffffffffffffffffffffffffffffffffffffffffffff1916827bffffffffffffffffffffffffffffffffffffffffffffffffffffffff1916149050919050565b6118c984848484611bba565b600181111561190d576040517f08c379a000000000000000000000000000000000000000000000000000000000815260040161190490612943565b60405180910390fd5b6000829050600073ffffffffffffffffffffffffffffffffffffffff168573ffffffffffffffffffffffffffffffffffffffff1614156119555761195081611bc0565b611994565b8373ffffffffffffffffffffffffffffffffffffffff168573ffffffffffffffffffffffffffffffffffffffff1614611993576119928582611c09565b5b5b600073ffffffffffffffffffffffffffffffffffffffff168473ffffffffffffffffffffffffffffffffffffffff1614156119d7576119d281611d76565b611a16565b8473ffffffffffffffffffffffffffffffffffffffff168473ffffffffffffffffffffffffffffffffffffffff1614611a1557611a148482611eb9565b5b5b5050505050565b50505050565b6000611a448473ffffffffffffffffffffffffffffffffffffffff16611f38565b15611bad578373ffffffffffffffffffffffffffffffffffffffff1663150b7a02611a6d610e2e565b8786866040518563ffffffff1660e01b8152600401611a8f94939291906126ba565b602060405180830381600087803b158015611aa957600080fd5b505af1925050508015611ada57506040513d601f19601f82011682018060405250810190611ad7919061235b565b60015b611b5d573d8060008114611b0a576040519150601f19603f3d011682016040523d82523d6000602084013e611b0f565b606091505b50600081511415611b55576040517f08c379a0000000000000000000000000000000000000000000000000000000008152600401611b4c90612783565b60405180910390fd5b805181602001fd5b63150b7a0260e01b7bffffffffffffffffffffffffffffffffffffffffffffffffffffffff1916817bffffffffffffffffffffffffffffffffffffffffffffffffffffffff191614915050611bb2565b600190505b949350505050565b50505050565b6008805490506009600083815260200190815260200160002081905550600881908060018154018082558091505060019003906000526020600020016000909190919091505550565b60006001611c16846108c5565b611c209190612a93565b9050600060076000848152602001908152602001600020549050818114611d05576000600660008673ffffffffffffffffffffffffffffffffffffffff1673ffffffffffffffffffffffffffffffffffffffff168152602001908152602001600020600084815260200190815260200160002054905080600660008773ffffffffffffffffffffffffffffffffffffffff1673ffffffffffffffffffffffffffffffffffffffff168152602001908152602001600020600084815260200190815260200160002081905550816007600083815260200190815260200160002081905550505b6007600084815260200190815260200160002060009055600660008573ffffffffffffffffffffffffffffffffffffffff1673ffffffffffffffffffffffffffffffffffffffff16815260200190815260200160002060008381526020019081526020016000206000905550505050565b60006001600880549050611d8a9190612a93565b9050600060096000848152602001908152602001600020549050600060088381548110611de0577f4e487b7100000000000000000000000000000000000000000000000000000000600052603260045260246000fd5b906000526020600020015490508060088381548110611e28577f4e487b7100000000000000000000000000000000000000000000000000000000600052603260045260246000fd5b906000526020600020018190555081600960008381526020019081526020016000208190555060096000858152602001908152602001600020600090556008805480611e9d577f4e487b7100000000000000000000000000000000000000000000000000000000600052603160045260246000fd5b6001900381819060005260206000200160009055905550505050565b6000611ec4836108c5565b905081600660008573ffffffffffffffffffffffffffffffffffffffff1673ffffffffffffffffffffffffffffffffffffffff168152602001908152602001600020600083815260200190815260200160002081905550806007600084815260200190815260200160002081905550505050565b6000808273ffffffffffffffffffffffffffffffffffffffff163b119050919050565b828054611f6790612b7d565b90600052602060002090601f016020900481019282611f895760008555611fd0565b82601f10611fa257805160ff1916838001178555611fd0565b82800160010185558215611fd0579182015b82811115611fcf578251825591602001919060010190611fb4565b5b509050611fdd9190611fe1565b5090565b5b80821115611ffa576000816000905550600101611fe2565b5090565b600061201161200c846129a3565b61297e565b90508281526020810184848401111561202957600080fd5b612034848285612b3b565b509392505050565b600061204f61204a846129d4565b61297e565b90508281526020810184848401111561206757600080fd5b612072848285612b3b565b509392505050565b600081359050612089816130ff565b92915050565b60008135905061209e81613116565b92915050565b6000813590506120b38161312d565b92915050565b6000815190506120c88161312d565b92915050565b600082601f8301126120df57600080fd5b81356120ef848260208601611ffe565b91505092915050565b600082601f83011261210957600080fd5b813561211984826020860161203c565b91505092915050565b60008135905061213181613144565b92915050565b60006020828403121561214957600080fd5b60006121578482850161207a565b91505092915050565b6000806040838503121561217357600080fd5b60006121818582860161207a565b92505060206121928582860161207a565b9150509250929050565b6000806000606084860312156121b157600080fd5b60006121bf8682870161207a565b93505060206121d08682870161207a565b92505060406121e186828701612122565b9150509250925092565b6000806000806080858703121561220157600080fd5b600061220f8782880161207a565b94505060206122208782880161207a565b935050604061223187828801612122565b925050606085013567ffffffffffffffff81111561224e57600080fd5b61225a878288016120ce565b91505092959194509250565b6000806040838503121561227957600080fd5b60006122878582860161207a565b92505060206122988582860161208f565b9150509250929050565b600080604083850312156122b557600080fd5b60006122c38582860161207a565b925050602083013567ffffffffffffffff8111156122e057600080fd5b6122ec858286016120f8565b9150509250929050565b6000806040838503121561230957600080fd5b60006123178582860161207a565b925050602061232885828601612122565b9150509250929050565b60006020828403121561234457600080fd5b6000612352848285016120a4565b91505092915050565b60006020828403121561236d57600080fd5b600061237b848285016120b9565b91505092915050565b60006020828403121561239657600080fd5b60006123a484828501612122565b91505092915050565b6123b681612ac7565b82525050565b6123c581612ad9565b82525050565b60006123d682612a05565b6123e08185612a1b565b93506123f0818560208601612b4a565b6123f981612c6d565b840191505092915050565b600061240f82612a10565b6124198185612a2c565b9350612429818560208601612b4a565b61243281612c6d565b840191505092915050565b600061244a602d83612a2c565b915061245582612c7e565b604082019050919050565b600061246d602b83612a2c565b915061247882612ccd565b604082019050919050565b6000612490603283612a2c565b915061249b82612d1c565b604082019050919050565b60006124b3602683612a2c565b91506124be82612d6b565b604082019050919050565b60006124d6602583612a2c565b91506124e182612dba565b604082019050919050565b60006124f9601c83612a2c565b915061250482612e09565b602082019050919050565b600061251c602483612a2c565b915061252782612e32565b604082019050919050565b600061253f601983612a2c565b915061254a82612e81565b602082019050919050565b6000612562602983612a2c565b915061256d82612eaa565b604082019050919050565b6000612585602083612a2c565b915061259082612ef9565b602082019050919050565b60006125a8602083612a2c565b91506125b382612f22565b602082019050919050565b60006125cb602f83612a2c565b91506125d682612f4b565b604082019050919050565b60006125ee601883612a2c565b91506125f982612f9a565b602082019050919050565b6000612611602183612a2c565b915061261c82612fc3565b604082019050919050565b6000612634603d83612a2c565b915061263f82613012565b604082019050919050565b6000612657602c83612a2c565b915061266282613061565b604082019050919050565b600061267a603583612a2c565b9150612685826130b0565b604082019050919050565b61269981612b31565b82525050565b60006020820190506126b460008301846123ad565b92915050565b60006080820190506126cf60008301876123ad565b6126dc60208301866123ad565b6126e96040830185612690565b81810360608301526126fb81846123cb565b905095945050505050565b600060208201905061271b60008301846123bc565b92915050565b6000602082019050818103600083015261273b8184612404565b905092915050565b6000602082019050818103600083015261275c8161243d565b9050919050565b6000602082019050818103600083015261277c81612460565b9050919050565b6000602082019050818103600083015261279c81612483565b9050919050565b600060208201905081810360008301526127bc816124a6565b9050919050565b600060208201905081810360008301526127dc816124c9565b9050919050565b600060208201905081810360008301526127fc816124ec565b9050919050565b6000602082019050818103600083015261281c8161250f565b9050919050565b6000602082019050818103600083015261283c81612532565b9050919050565b6000602082019050818103600083015261285c81612555565b9050919050565b6000602082019050818103600083015261287c81612578565b9050919050565b6000602082019050818103600083015261289c8161259b565b9050919050565b600060208201905081810360008301526128bc816125be565b9050919050565b600060208201905081810360008301526128dc816125e1565b9050919050565b600060208201905081810360008301526128fc81612604565b9050919050565b6000602082019050818103600083015261291c81612627565b9050919050565b6000602082019050818103600083015261293c8161264a565b9050919050565b6000602082019050818103600083015261295c8161266d565b9050919050565b60006020820190506129786000830184612690565b92915050565b6000612988612999565b90506129948282612baf565b919050565b6000604051905090565b600067ffffffffffffffff8211156129be576129bd612c3e565b5b6129c782612c6d565b9050602081019050919050565b600067ffffffffffffffff8211156129ef576129ee612c3e565b5b6129f882612c6d565b9050602081019050919050565b600081519050919050565b600081519050919050565b600082825260208201905092915050565b600082825260208201905092915050565b6000612a4882612b31565b9150612a5383612b31565b9250827fffffffffffffffffffffffffffffffffffffffffffffffffffffffffffffffff03821115612a8857612a87612be0565b5b828201905092915050565b6000612a9e82612b31565b9150612aa983612b31565b925082821015612abc57612abb612be0565b5b828203905092915050565b6000612ad282612b11565b9050919050565b60008115159050919050565b60007fffffffff0000000000000000000000000000000000000000000000000000000082169050919050565b600073ffffffffffffffffffffffffffffffffffffffff82169050919050565b6000819050919050565b82818337600083830152505050565b60005b83811015612b68578082015181840152602081019050612b4d565b83811115612b77576000848401525b50505050565b60006002820490506001821680612b9557607f821691505b60208210811415612ba957612ba8612c0f565b5b50919050565b612bb882612c6d565b810181811067ffffffffffffffff82111715612bd757612bd6612c3e565b5b80604052505050565b7f4e487b7100000000000000000000000000000000000000000000000000000000600052601160045260246000fd5b7f4e487b7100000000000000000000000000000000000000000000000000000000600052602260045260246000fd5b7f4e487b7100000000000000000000000000000000000000000000000000000000600052604160045260246000fd5b6000601f19601f8301169050919050565b7f4552433732313a2063616c6c6572206973206e6f7420746f6b656e206f776e6560008201527f72206f7220617070726f76656400000000000000000000000000000000000000602082015250565b7f455243373231456e756d657261626c653a206f776e657220696e646578206f7560008201527f74206f6620626f756e6473000000000000000000000000000000000000000000602082015250565b7f4552433732313a207472616e7366657220746f206e6f6e20455243373231526560008201527f63656976657220696d706c656d656e7465720000000000000000000000000000602082015250565b7f4f776e61626c653a206e6577206f776e657220697320746865207a65726f206160008201527f6464726573730000000000000000000000000000000000000000000000000000602082015250565b7f4552433732313a207472616e736665722066726f6d20696e636f72726563742060008201527f6f776e6572000000000000000000000000000000000000000000000000000000602082015250565b7f4552433732313a20746f6b656e20616c7265616479206d696e74656400000000600082015250565b7f4552433732313a207472616e7366657220746f20746865207a65726f2061646460008201527f7265737300000000000000000000000000000000000000000000000000000000602082015250565b7f4552433732313a20617070726f766520746f2063616c6c657200000000000000600082015250565b7f4552433732313a2061646472657373207a65726f206973206e6f74206120766160008201527f6c6964206f776e65720000000000000000000000000000000000000000000000602082015250565b7f4552433732313a206d696e7420746f20746865207a65726f2061646472657373600082015250565b7f4f776e61626c653a2063616c6c6572206973206e6f7420746865206f776e6572600082015250565b7f4552433732314d657461646174613a2055524920717565727920666f72206e6f60008201527f6e6578697374656e7420746f6b656e0000000000000000000000000000000000602082015250565b7f4552433732313a20696e76616c696420746f6b656e2049440000000000000000600082015250565b7f4552433732313a20617070726f76616c20746f2063757272656e74206f776e6560008201527f7200000000000000000000000000000000000000000000000000000000000000602082015250565b7f4552433732313a20617070726f76652063616c6c6572206973206e6f7420746f60008201527f6b656e206f776e6572206f7220617070726f76656420666f7220616c6c000000602082015250565b7f455243373231456e756d657261626c653a20676c6f62616c20696e646578206f60008201527f7574206f6620626f756e64730000000000000000000000000000000000000000602082015250565b7f455243373231456e756d657261626c653a20636f6e736563757469766520747260008201527f616e7366657273206e6f7420737570706f727465640000000000000000000000602082015250565b61310881612ac7565b811461311357600080fd5b50565b61311f81612ad9565b811461312a57600080fd5b50565b61313681612ae5565b811461314157600080fd5b50565b61314d81612b31565b811461315857600080fd5b5056fea2646970667358221220904ca190a5ffcf1b146410b9eb6d2acd963aa9a1b2600739eff8c261c9b2972764736f6c63430008010033",
  "immutableReferences": {},
  "source": "// SPDX-License-Identifier: UNLICENSED\r\n\r\n\r\npragma solidity ^0.8.0;\r\n\r\nimport \"@openzeppelin/contracts/utils/math/SafeMath.sol\";\r\nimport \"@openzeppelin/contracts/token/ERC721/extensions/ERC721Enumerable.sol\";\r\nimport \"@openzeppelin/contracts/access/Ownable.sol\";\r\n\r\n\r\ncontract ShoeNFT is ERC721Enumerable, Ownable {\r\n\r\n    mapping(uint256 => string) private _tokenURIs;\r\n\r\n    constructor() ERC721(\"ShoeNFT\", \"SHOE\") {}\r\n\r\n    function mint(address to, string memory tokenURI) public returns (uint256) {\r\n        uint256 newTokenId = totalSupply()+1;\r\n        _mint(to, newTokenId);\r\n        _setTokenURI(newTokenId, tokenURI);\r\n        return newTokenId;\r\n    }\r\n\r\n    function _setTokenURI(uint256 tokenId, string memory _tokenURI) internal virtual {\r\n        _tokenURIs[tokenId] = _tokenURI;\r\n    }\r\n\r\n    function tokenURI(uint256 tokenId) public view virtual override returns (string memory) {\r\n        require(_exists(tokenId), \"ERC721Metadata: URI query for nonexistent token\");\r\n        return _tokenURIs[tokenId];\r\n    }\r\n}",
  "sourcePath": "C:\\Users\\terkrub\\Desktop\\Blockchain-project\\contracts\\ShoeNFT.sol",
  "compiler": {
    "name": "solc",
    "version": "0.8.1+commit.df193b15.Emscripten.clang"
  },
  "schemaVersion": "3.4.16",
  "updatedAt": "2023-09-13T16:26:47.240Z",
  "devdoc": {
    "kind": "dev",
    "methods": {
      "approve(address,uint256)": {
        "details": "See {IERC721-approve}."
      },
      "balanceOf(address)": {
        "details": "See {IERC721-balanceOf}."
      },
      "getApproved(uint256)": {
        "details": "See {IERC721-getApproved}."
      },
      "isApprovedForAll(address,address)": {
        "details": "See {IERC721-isApprovedForAll}."
      },
      "name()": {
        "details": "See {IERC721Metadata-name}."
      },
      "owner()": {
        "details": "Returns the address of the current owner."
      },
      "ownerOf(uint256)": {
        "details": "See {IERC721-ownerOf}."
      },
      "renounceOwnership()": {
        "details": "Leaves the contract without owner. It will not be possible to call `onlyOwner` functions. Can only be called by the current owner. NOTE: Renouncing ownership will leave the contract without an owner, thereby disabling any functionality that is only available to the owner."
      },
      "safeTransferFrom(address,address,uint256)": {
        "details": "See {IERC721-safeTransferFrom}."
      },
      "safeTransferFrom(address,address,uint256,bytes)": {
        "details": "See {IERC721-safeTransferFrom}."
      },
      "setApprovalForAll(address,bool)": {
        "details": "See {IERC721-setApprovalForAll}."
      },
      "supportsInterface(bytes4)": {
        "details": "See {IERC165-supportsInterface}."
      },
      "symbol()": {
        "details": "See {IERC721Metadata-symbol}."
      },
      "tokenByIndex(uint256)": {
        "details": "See {IERC721Enumerable-tokenByIndex}."
      },
      "tokenOfOwnerByIndex(address,uint256)": {
        "details": "See {IERC721Enumerable-tokenOfOwnerByIndex}."
      },
      "tokenURI(uint256)": {
        "details": "See {IERC721Metadata-tokenURI}."
      },
      "totalSupply()": {
        "details": "See {IERC721Enumerable-totalSupply}."
      },
      "transferFrom(address,address,uint256)": {
        "details": "See {IERC721-transferFrom}."
      },
      "transferOwnership(address)": {
        "details": "Transfers ownership of the contract to a new account (`newOwner`). Can only be called by the current owner."
      }
    },
    "version": 1
  },
  "userdoc": {
    "kind": "user",
    "methods": {},
    "version": 1
  }
}